{
	"VotingContract.sol": {
		"VotingContract": {
			"abi": [
				{
					"inputs": [
						{
							"internalType": "address",
							"name": "_votingToken",
							"type": "address"
						}
					],
					"stateMutability": "nonpayable",
					"type": "constructor"
				},
				{
					"anonymous": false,
					"inputs": [
						{
							"indexed": false,
							"internalType": "address",
							"name": "",
							"type": "address"
						},
						{
							"indexed": false,
							"internalType": "uint256",
							"name": "",
							"type": "uint256"
						}
					],
					"name": "CastVote",
					"type": "event"
				},
				{
					"anonymous": false,
					"inputs": [
						{
							"indexed": false,
							"internalType": "uint256",
							"name": "",
							"type": "uint256"
						}
					],
					"name": "ECreateProposal",
					"type": "event"
				},
				{
					"anonymous": false,
					"inputs": [
						{
							"indexed": false,
							"internalType": "uint256",
							"name": "",
							"type": "uint256"
						},
						{
							"indexed": false,
							"internalType": "bool",
							"name": "",
							"type": "bool"
						}
					],
					"name": "EFinalize",
					"type": "event"
				},
				{
					"inputs": [
						{
							"internalType": "uint256",
							"name": "proposalId",
							"type": "uint256"
						},
						{
							"internalType": "bool",
							"name": "isApprove",
							"type": "bool"
						}
					],
					"name": "castVote",
					"outputs": [],
					"stateMutability": "nonpayable",
					"type": "function"
				},
				{
					"inputs": [
						{
							"internalType": "string",
							"name": "_description",
							"type": "string"
						}
					],
					"name": "createProposal",
					"outputs": [],
					"stateMutability": "nonpayable",
					"type": "function"
				},
				{
					"inputs": [
						{
							"internalType": "uint256",
							"name": "proposalId",
							"type": "uint256"
						}
					],
					"name": "finalizeProposal",
					"outputs": [],
					"stateMutability": "nonpayable",
					"type": "function"
				},
				{
					"inputs": [],
					"name": "proposalCount",
					"outputs": [
						{
							"internalType": "uint256",
							"name": "",
							"type": "uint256"
						}
					],
					"stateMutability": "view",
					"type": "function"
				},
				{
					"inputs": [
						{
							"internalType": "uint256",
							"name": "",
							"type": "uint256"
						}
					],
					"name": "proposals",
					"outputs": [
						{
							"internalType": "string",
							"name": "description",
							"type": "string"
						},
						{
							"internalType": "uint256",
							"name": "yesCount",
							"type": "uint256"
						},
						{
							"internalType": "uint256",
							"name": "noCount",
							"type": "uint256"
						},
						{
							"internalType": "uint256",
							"name": "timestamp",
							"type": "uint256"
						}
					],
					"stateMutability": "view",
					"type": "function"
				},
				{
					"inputs": [
						{
							"internalType": "uint256",
							"name": "",
							"type": "uint256"
						}
					],
					"name": "resultProposal",
					"outputs": [
						{
							"internalType": "bool",
							"name": "",
							"type": "bool"
						}
					],
					"stateMutability": "view",
					"type": "function"
				},
				{
					"inputs": [],
					"name": "votingToken",
					"outputs": [
						{
							"internalType": "contract IToken",
							"name": "",
							"type": "address"
						}
					],
					"stateMutability": "view",
					"type": "function"
				}
			],
			"devdoc": {
				"kind": "dev",
				"methods": {},
				"version": 1
			},
			"evm": {
				"assembly": "    /* \"VotingContract.sol\":308:2601  contract VotingContract {... */\n  mstore(0x40, 0x80)\n    /* \"VotingContract.sol\":1021:1136  constructor(address _votingToken) {... */\n  callvalue\n  dup1\n  iszero\n  tag_1\n  jumpi\n  0x00\n  dup1\n  revert\ntag_1:\n  pop\n  mload(0x40)\n  sub(codesize, bytecodeSize)\n  dup1\n  bytecodeSize\n  dup4\n  codecopy\n  dup2\n  dup2\n  add\n  0x40\n  mstore\n  dup2\n  add\n  swap1\n  tag_2\n  swap2\n  swap1\n  tag_3\n  jump\t// in\ntag_2:\n    /* \"VotingContract.sol\":1082:1083  0 */\n  0x00\n    /* \"VotingContract.sol\":1066:1079  proposalCount */\n  0x02\n    /* \"VotingContract.sol\":1066:1083  proposalCount = 0 */\n  dup2\n  swap1\n  sstore\n  pop\n    /* \"VotingContract.sol\":1115:1127  _votingToken */\n  dup1\n    /* \"VotingContract.sol\":1094:1105  votingToken */\n  0x00\n  dup1\n    /* \"VotingContract.sol\":1094:1128  votingToken = IToken(_votingToken) */\n  0x0100\n  exp\n  dup2\n  sload\n  dup2\n  0xffffffffffffffffffffffffffffffffffffffff\n  mul\n  not\n  and\n  swap1\n  dup4\n  0xffffffffffffffffffffffffffffffffffffffff\n  and\n  mul\n  or\n  swap1\n  sstore\n  pop\n    /* \"VotingContract.sol\":1021:1136  constructor(address _votingToken) {... */\n  pop\n    /* \"VotingContract.sol\":308:2601  contract VotingContract {... */\n  jump(tag_6)\n    /* \"#utility.yul\":88:205   */\ntag_8:\n    /* \"#utility.yul\":197:198   */\n  0x00\n    /* \"#utility.yul\":194:195   */\n  dup1\n    /* \"#utility.yul\":187:199   */\n  revert\n    /* \"#utility.yul\":334:460   */\ntag_10:\n    /* \"#utility.yul\":371:378   */\n  0x00\n    /* \"#utility.yul\":411:453   */\n  0xffffffffffffffffffffffffffffffffffffffff\n    /* \"#utility.yul\":404:409   */\n  dup3\n    /* \"#utility.yul\":400:454   */\n  and\n    /* \"#utility.yul\":389:454   */\n  swap1\n  pop\n    /* \"#utility.yul\":334:460   */\n  swap2\n  swap1\n  pop\n  jump\t// out\n    /* \"#utility.yul\":466:562   */\ntag_11:\n    /* \"#utility.yul\":503:510   */\n  0x00\n    /* \"#utility.yul\":532:556   */\n  tag_20\n    /* \"#utility.yul\":550:555   */\n  dup3\n    /* \"#utility.yul\":532:556   */\n  tag_10\n  jump\t// in\ntag_20:\n    /* \"#utility.yul\":521:556   */\n  swap1\n  pop\n    /* \"#utility.yul\":466:562   */\n  swap2\n  swap1\n  pop\n  jump\t// out\n    /* \"#utility.yul\":568:690   */\ntag_12:\n    /* \"#utility.yul\":641:665   */\n  tag_22\n    /* \"#utility.yul\":659:664   */\n  dup2\n    /* \"#utility.yul\":641:665   */\n  tag_11\n  jump\t// in\ntag_22:\n    /* \"#utility.yul\":634:639   */\n  dup2\n    /* \"#utility.yul\":631:666   */\n  eq\n    /* \"#utility.yul\":621:684   */\n  tag_23\n  jumpi\n    /* \"#utility.yul\":680:681   */\n  0x00\n    /* \"#utility.yul\":677:678   */\n  dup1\n    /* \"#utility.yul\":670:682   */\n  revert\n    /* \"#utility.yul\":621:684   */\ntag_23:\n    /* \"#utility.yul\":568:690   */\n  pop\n  jump\t// out\n    /* \"#utility.yul\":696:839   */\ntag_13:\n    /* \"#utility.yul\":753:758   */\n  0x00\n    /* \"#utility.yul\":784:790   */\n  dup2\n    /* \"#utility.yul\":778:791   */\n  mload\n    /* \"#utility.yul\":769:791   */\n  swap1\n  pop\n    /* \"#utility.yul\":800:833   */\n  tag_25\n    /* \"#utility.yul\":827:832   */\n  dup2\n    /* \"#utility.yul\":800:833   */\n  tag_12\n  jump\t// in\ntag_25:\n    /* \"#utility.yul\":696:839   */\n  swap3\n  swap2\n  pop\n  pop\n  jump\t// out\n    /* \"#utility.yul\":845:1196   */\ntag_3:\n    /* \"#utility.yul\":915:921   */\n  0x00\n    /* \"#utility.yul\":964:966   */\n  0x20\n    /* \"#utility.yul\":952:961   */\n  dup3\n    /* \"#utility.yul\":943:950   */\n  dup5\n    /* \"#utility.yul\":939:962   */\n  sub\n    /* \"#utility.yul\":935:967   */\n  slt\n    /* \"#utility.yul\":932:1051   */\n  iszero\n  tag_27\n  jumpi\n    /* \"#utility.yul\":970:1049   */\n  tag_28\n  tag_8\n  jump\t// in\ntag_28:\n    /* \"#utility.yul\":932:1051   */\ntag_27:\n    /* \"#utility.yul\":1090:1091   */\n  0x00\n    /* \"#utility.yul\":1115:1179   */\n  tag_29\n    /* \"#utility.yul\":1171:1178   */\n  dup5\n    /* \"#utility.yul\":1162:1168   */\n  dup3\n    /* \"#utility.yul\":1151:1160   */\n  dup6\n    /* \"#utility.yul\":1147:1169   */\n  add\n    /* \"#utility.yul\":1115:1179   */\n  tag_13\n  jump\t// in\ntag_29:\n    /* \"#utility.yul\":1105:1179   */\n  swap2\n  pop\n    /* \"#utility.yul\":1061:1189   */\n  pop\n    /* \"#utility.yul\":845:1196   */\n  swap3\n  swap2\n  pop\n  pop\n  jump\t// out\n    /* \"VotingContract.sol\":308:2601  contract VotingContract {... */\ntag_6:\n  dataSize(sub_0)\n  dup1\n  dataOffset(sub_0)\n  0x00\n  codecopy\n  0x00\n  return\nstop\n\nsub_0: assembly {\n        /* \"VotingContract.sol\":308:2601  contract VotingContract {... */\n      mstore(0x40, 0x80)\n      callvalue\n      dup1\n      iszero\n      tag_1\n      jumpi\n      0x00\n      dup1\n      revert\n    tag_1:\n      pop\n      jumpi(tag_2, lt(calldatasize, 0x04))\n      shr(0xe0, calldataload(0x00))\n      dup1\n      0x49c2a1a6\n      gt\n      tag_10\n      jumpi\n      dup1\n      0x49c2a1a6\n      eq\n      tag_6\n      jumpi\n      dup1\n      0x5652077c\n      eq\n      tag_7\n      jumpi\n      dup1\n      0xb0340123\n      eq\n      tag_8\n      jumpi\n      dup1\n      0xda35c664\n      eq\n      tag_9\n      jumpi\n      jump(tag_2)\n    tag_10:\n      dup1\n      0x013cf08b\n      eq\n      tag_3\n      jumpi\n      dup1\n      0x109fd3cb\n      eq\n      tag_4\n      jumpi\n      dup1\n      0x15373e3d\n      eq\n      tag_5\n      jumpi\n    tag_2:\n      0x00\n      dup1\n      revert\n        /* \"VotingContract.sol\":548:575  Proposal[] public proposals */\n    tag_3:\n      tag_11\n      0x04\n      dup1\n      calldatasize\n      sub\n      dup2\n      add\n      swap1\n      tag_12\n      swap2\n      swap1\n      tag_13\n      jump\t// in\n    tag_12:\n      tag_14\n      jump\t// in\n    tag_11:\n      mload(0x40)\n      tag_15\n      swap5\n      swap4\n      swap3\n      swap2\n      swap1\n      tag_16\n      jump\t// in\n    tag_15:\n      mload(0x40)\n      dup1\n      swap2\n      sub\n      swap1\n      return\n        /* \"VotingContract.sol\":685:731  mapping(uint256 => bool) public resultProposal */\n    tag_4:\n      tag_17\n      0x04\n      dup1\n      calldatasize\n      sub\n      dup2\n      add\n      swap1\n      tag_18\n      swap2\n      swap1\n      tag_13\n      jump\t// in\n    tag_18:\n      tag_19\n      jump\t// in\n    tag_17:\n      mload(0x40)\n      tag_20\n      swap2\n      swap1\n      tag_21\n      jump\t// in\n    tag_20:\n      mload(0x40)\n      dup1\n      swap2\n      sub\n      swap1\n      return\n        /* \"VotingContract.sol\":1548:2039  function castVote(uint256 proposalId, bool isApprove) public {... */\n    tag_5:\n      tag_22\n      0x04\n      dup1\n      calldatasize\n      sub\n      dup2\n      add\n      swap1\n      tag_23\n      swap2\n      swap1\n      tag_24\n      jump\t// in\n    tag_23:\n      tag_25\n      jump\t// in\n    tag_22:\n      stop\n        /* \"VotingContract.sol\":1144:1536  function createProposal (string memory _description) public {... */\n    tag_6:\n      tag_26\n      0x04\n      dup1\n      calldatasize\n      sub\n      dup2\n      add\n      swap1\n      tag_27\n      swap2\n      swap1\n      tag_28\n      jump\t// in\n    tag_27:\n      tag_29\n      jump\t// in\n    tag_26:\n      stop\n        /* \"VotingContract.sol\":2047:2598  function finalizeProposal(uint256 proposalId) public {... */\n    tag_7:\n      tag_30\n      0x04\n      dup1\n      calldatasize\n      sub\n      dup2\n      add\n      swap1\n      tag_31\n      swap2\n      swap1\n      tag_13\n      jump\t// in\n    tag_31:\n      tag_32\n      jump\t// in\n    tag_30:\n      stop\n        /* \"VotingContract.sol\":516:541  IToken public votingToken */\n    tag_8:\n      tag_33\n      tag_34\n      jump\t// in\n    tag_33:\n      mload(0x40)\n      tag_35\n      swap2\n      swap1\n      tag_36\n      jump\t// in\n    tag_35:\n      mload(0x40)\n      dup1\n      swap2\n      sub\n      swap1\n      return\n        /* \"VotingContract.sol\":582:610  uint256 public proposalCount */\n    tag_9:\n      tag_37\n      tag_38\n      jump\t// in\n    tag_37:\n      mload(0x40)\n      tag_39\n      swap2\n      swap1\n      tag_40\n      jump\t// in\n    tag_39:\n      mload(0x40)\n      dup1\n      swap2\n      sub\n      swap1\n      return\n        /* \"VotingContract.sol\":548:575  Proposal[] public proposals */\n    tag_14:\n      0x01\n      dup2\n      dup2\n      sload\n      dup2\n      lt\n      tag_41\n      jumpi\n      0x00\n      dup1\n      revert\n    tag_41:\n      swap1\n      0x00\n      mstore\n      keccak256(0x00, 0x20)\n      swap1\n      0x04\n      mul\n      add\n      0x00\n      swap2\n      pop\n      swap1\n      pop\n      dup1\n      0x00\n      add\n      dup1\n      sload\n      tag_43\n      swap1\n      tag_44\n      jump\t// in\n    tag_43:\n      dup1\n      0x1f\n      add\n      0x20\n      dup1\n      swap2\n      div\n      mul\n      0x20\n      add\n      mload(0x40)\n      swap1\n      dup2\n      add\n      0x40\n      mstore\n      dup1\n      swap3\n      swap2\n      swap1\n      dup2\n      dup2\n      mstore\n      0x20\n      add\n      dup3\n      dup1\n      sload\n      tag_45\n      swap1\n      tag_44\n      jump\t// in\n    tag_45:\n      dup1\n      iszero\n      tag_46\n      jumpi\n      dup1\n      0x1f\n      lt\n      tag_47\n      jumpi\n      0x0100\n      dup1\n      dup4\n      sload\n      div\n      mul\n      dup4\n      mstore\n      swap2\n      0x20\n      add\n      swap2\n      jump(tag_46)\n    tag_47:\n      dup3\n      add\n      swap2\n      swap1\n      0x00\n      mstore\n      keccak256(0x00, 0x20)\n      swap1\n    tag_48:\n      dup2\n      sload\n      dup2\n      mstore\n      swap1\n      0x01\n      add\n      swap1\n      0x20\n      add\n      dup1\n      dup4\n      gt\n      tag_48\n      jumpi\n      dup3\n      swap1\n      sub\n      0x1f\n      and\n      dup3\n      add\n      swap2\n    tag_46:\n      pop\n      pop\n      pop\n      pop\n      pop\n      swap1\n      dup1\n      0x01\n      add\n      sload\n      swap1\n      dup1\n      0x02\n      add\n      sload\n      swap1\n      dup1\n      0x03\n      add\n      sload\n      swap1\n      pop\n      dup5\n      jump\t// out\n        /* \"VotingContract.sol\":685:731  mapping(uint256 => bool) public resultProposal */\n    tag_19:\n      mstore(0x20, 0x04)\n      dup1\n      0x00\n      mstore\n      keccak256(0x00, 0x40)\n      0x00\n      swap2\n      pop\n      sload\n      swap1\n      0x0100\n      exp\n      swap1\n      div\n      0xff\n      and\n      dup2\n      jump\t// out\n        /* \"VotingContract.sol\":1548:2039  function castVote(uint256 proposalId, bool isApprove) public {... */\n    tag_25:\n        /* \"VotingContract.sol\":1664:1669  false */\n      0x00\n        /* \"VotingContract.sol\":1628:1669  hasVoted[msg.sender][proposalId] == false */\n      iszero\n      iszero\n        /* \"VotingContract.sol\":1628:1636  hasVoted */\n      0x03\n        /* \"VotingContract.sol\":1628:1648  hasVoted[msg.sender] */\n      0x00\n        /* \"VotingContract.sol\":1637:1647  msg.sender */\n      caller\n        /* \"VotingContract.sol\":1628:1648  hasVoted[msg.sender] */\n      0xffffffffffffffffffffffffffffffffffffffff\n      and\n      0xffffffffffffffffffffffffffffffffffffffff\n      and\n      dup2\n      mstore\n      0x20\n      add\n      swap1\n      dup2\n      mstore\n      0x20\n      add\n      0x00\n      keccak256\n        /* \"VotingContract.sol\":1628:1660  hasVoted[msg.sender][proposalId] */\n      0x00\n        /* \"VotingContract.sol\":1649:1659  proposalId */\n      dup5\n        /* \"VotingContract.sol\":1628:1660  hasVoted[msg.sender][proposalId] */\n      dup2\n      mstore\n      0x20\n      add\n      swap1\n      dup2\n      mstore\n      0x20\n      add\n      0x00\n      keccak256\n      0x00\n      swap1\n      sload\n      swap1\n      0x0100\n      exp\n      swap1\n      div\n      0xff\n      and\n        /* \"VotingContract.sol\":1628:1669  hasVoted[msg.sender][proposalId] == false */\n      iszero\n      iszero\n      eq\n        /* \"VotingContract.sol\":1620:1687  require(hasVoted[msg.sender][proposalId] == false, \"Already voted\") */\n      tag_50\n      jumpi\n      mload(0x40)\n      0x08c379a000000000000000000000000000000000000000000000000000000000\n      dup2\n      mstore\n      0x04\n      add\n      tag_51\n      swap1\n      tag_52\n      jump\t// in\n    tag_51:\n      mload(0x40)\n      dup1\n      swap2\n      sub\n      swap1\n      revert\n    tag_50:\n        /* \"VotingContract.sol\":1698:1716  uint256 totalToken */\n      0x00\n        /* \"VotingContract.sol\":1719:1730  votingToken */\n      dup1\n      0x00\n      swap1\n      sload\n      swap1\n      0x0100\n      exp\n      swap1\n      div\n      0xffffffffffffffffffffffffffffffffffffffff\n      and\n        /* \"VotingContract.sol\":1719:1740  votingToken.balanceOf */\n      0xffffffffffffffffffffffffffffffffffffffff\n      and\n      0x70a08231\n        /* \"VotingContract.sol\":1741:1751  msg.sender */\n      caller\n        /* \"VotingContract.sol\":1719:1752  votingToken.balanceOf(msg.sender) */\n      mload(0x40)\n      dup3\n      0xffffffff\n      and\n      0xe0\n      shl\n      dup2\n      mstore\n      0x04\n      add\n      tag_53\n      swap2\n      swap1\n      tag_54\n      jump\t// in\n    tag_53:\n      0x20\n      mload(0x40)\n      dup1\n      dup4\n      sub\n      dup2\n      0x00\n      dup8\n      gas\n      call\n      iszero\n      dup1\n      iszero\n      tag_56\n      jumpi\n      returndatasize\n      0x00\n      dup1\n      returndatacopy\n      revert(0x00, returndatasize)\n    tag_56:\n      pop\n      pop\n      pop\n      pop\n      mload(0x40)\n      returndatasize\n      not(0x1f)\n      0x1f\n      dup3\n      add\n      and\n      dup3\n      add\n      dup1\n      0x40\n      mstore\n      pop\n      dup2\n      add\n      swap1\n      tag_57\n      swap2\n      swap1\n      tag_58\n      jump\t// in\n    tag_57:\n        /* \"VotingContract.sol\":1698:1752  uint256 totalToken = votingToken.balanceOf(msg.sender) */\n      swap1\n      pop\n        /* \"VotingContract.sol\":1767:1776  isApprove */\n      dup2\n        /* \"VotingContract.sol\":1763:1934  if (isApprove) {... */\n      iszero\n      tag_59\n      jumpi\n        /* \"VotingContract.sol\":1827:1837  totalToken */\n      dup1\n        /* \"VotingContract.sol\":1793:1802  proposals */\n      0x01\n        /* \"VotingContract.sol\":1803:1813  proposalId */\n      dup5\n        /* \"VotingContract.sol\":1793:1814  proposals[proposalId] */\n      dup2\n      sload\n      dup2\n      lt\n      tag_60\n      jumpi\n      tag_61\n      tag_62\n      jump\t// in\n    tag_61:\n    tag_60:\n      swap1\n      0x00\n      mstore\n      keccak256(0x00, 0x20)\n      swap1\n      0x04\n      mul\n      add\n        /* \"VotingContract.sol\":1793:1823  proposals[proposalId].yesCount */\n      0x01\n      add\n      0x00\n        /* \"VotingContract.sol\":1793:1837  proposals[proposalId].yesCount += totalToken */\n      dup3\n      dup3\n      sload\n      tag_64\n      swap2\n      swap1\n      tag_65\n      jump\t// in\n    tag_64:\n      swap3\n      pop\n      pop\n      dup2\n      swap1\n      sstore\n      pop\n        /* \"VotingContract.sol\":1763:1934  if (isApprove) {... */\n      jump(tag_66)\n    tag_59:\n        /* \"VotingContract.sol\":1912:1922  totalToken */\n      dup1\n        /* \"VotingContract.sol\":1879:1888  proposals */\n      0x01\n        /* \"VotingContract.sol\":1889:1899  proposalId */\n      dup5\n        /* \"VotingContract.sol\":1879:1900  proposals[proposalId] */\n      dup2\n      sload\n      dup2\n      lt\n      tag_67\n      jumpi\n      tag_68\n      tag_62\n      jump\t// in\n    tag_68:\n    tag_67:\n      swap1\n      0x00\n      mstore\n      keccak256(0x00, 0x20)\n      swap1\n      0x04\n      mul\n      add\n        /* \"VotingContract.sol\":1879:1908  proposals[proposalId].noCount */\n      0x02\n      add\n      0x00\n        /* \"VotingContract.sol\":1879:1922  proposals[proposalId].noCount += totalToken */\n      dup3\n      dup3\n      sload\n      tag_70\n      swap2\n      swap1\n      tag_65\n      jump\t// in\n    tag_70:\n      swap3\n      pop\n      pop\n      dup2\n      swap1\n      sstore\n      pop\n        /* \"VotingContract.sol\":1763:1934  if (isApprove) {... */\n    tag_66:\n        /* \"VotingContract.sol\":1979:1983  true */\n      0x01\n        /* \"VotingContract.sol\":1944:1952  hasVoted */\n      0x03\n        /* \"VotingContract.sol\":1944:1964  hasVoted[msg.sender] */\n      0x00\n        /* \"VotingContract.sol\":1953:1963  msg.sender */\n      caller\n        /* \"VotingContract.sol\":1944:1964  hasVoted[msg.sender] */\n      0xffffffffffffffffffffffffffffffffffffffff\n      and\n      0xffffffffffffffffffffffffffffffffffffffff\n      and\n      dup2\n      mstore\n      0x20\n      add\n      swap1\n      dup2\n      mstore\n      0x20\n      add\n      0x00\n      keccak256\n        /* \"VotingContract.sol\":1944:1976  hasVoted[msg.sender][proposalId] */\n      0x00\n        /* \"VotingContract.sol\":1965:1975  proposalId */\n      dup6\n        /* \"VotingContract.sol\":1944:1976  hasVoted[msg.sender][proposalId] */\n      dup2\n      mstore\n      0x20\n      add\n      swap1\n      dup2\n      mstore\n      0x20\n      add\n      0x00\n      keccak256\n      0x00\n        /* \"VotingContract.sol\":1944:1983  hasVoted[msg.sender][proposalId] = true */\n      0x0100\n      exp\n      dup2\n      sload\n      dup2\n      0xff\n      mul\n      not\n      and\n      swap1\n      dup4\n      iszero\n      iszero\n      mul\n      or\n      swap1\n      sstore\n      pop\n        /* \"VotingContract.sol\":1999:2031  CastVote(msg.sender, proposalId) */\n      0x6dfaf9f72a4f8d7ca175050b9ebbe67c0fa6e9792fafb145f9e4224a6b49aa95\n        /* \"VotingContract.sol\":2008:2018  msg.sender */\n      caller\n        /* \"VotingContract.sol\":2020:2030  proposalId */\n      dup5\n        /* \"VotingContract.sol\":1999:2031  CastVote(msg.sender, proposalId) */\n      mload(0x40)\n      tag_71\n      swap3\n      swap2\n      swap1\n      tag_72\n      jump\t// in\n    tag_71:\n      mload(0x40)\n      dup1\n      swap2\n      sub\n      swap1\n      log1\n        /* \"VotingContract.sol\":1609:2039  {... */\n      pop\n        /* \"VotingContract.sol\":1548:2039  function castVote(uint256 proposalId, bool isApprove) public {... */\n      pop\n      pop\n      jump\t// out\n        /* \"VotingContract.sol\":1144:1536  function createProposal (string memory _description) public {... */\n    tag_29:\n        /* \"VotingContract.sol\":1215:1226  votingToken */\n      0x00\n      dup1\n      sload\n      swap1\n      0x0100\n      exp\n      swap1\n      div\n      0xffffffffffffffffffffffffffffffffffffffff\n      and\n        /* \"VotingContract.sol\":1215:1239  votingToken.transferFrom */\n      0xffffffffffffffffffffffffffffffffffffffff\n      and\n      0x23b872dd\n        /* \"VotingContract.sol\":1240:1250  msg.sender */\n      caller\n        /* \"VotingContract.sol\":1260:1264  this */\n      address\n        /* \"VotingContract.sol\":1267:1269  20 */\n      0x14\n        /* \"VotingContract.sol\":1215:1270  votingToken.transferFrom(msg.sender, address(this), 20) */\n      mload(0x40)\n      dup5\n      0xffffffff\n      and\n      0xe0\n      shl\n      dup2\n      mstore\n      0x04\n      add\n      tag_74\n      swap4\n      swap3\n      swap2\n      swap1\n      tag_75\n      jump\t// in\n    tag_74:\n      0x20\n      mload(0x40)\n      dup1\n      dup4\n      sub\n      dup2\n      0x00\n      dup8\n      gas\n      call\n      iszero\n      dup1\n      iszero\n      tag_77\n      jumpi\n      returndatasize\n      0x00\n      dup1\n      returndatacopy\n      revert(0x00, returndatasize)\n    tag_77:\n      pop\n      pop\n      pop\n      pop\n      mload(0x40)\n      returndatasize\n      not(0x1f)\n      0x1f\n      dup3\n      add\n      and\n      dup3\n      add\n      dup1\n      0x40\n      mstore\n      pop\n      dup2\n      add\n      swap1\n      tag_78\n      swap2\n      swap1\n      tag_79\n      jump\t// in\n    tag_78:\n      pop\n        /* \"VotingContract.sol\":1281:1303  Proposal memory propos */\n      0x00\n        /* \"VotingContract.sol\":1306:1423  Proposal(... */\n      mload(0x40)\n      dup1\n      0x80\n      add\n      0x40\n      mstore\n      dup1\n        /* \"VotingContract.sol\":1329:1341  _description */\n      dup4\n        /* \"VotingContract.sol\":1306:1423  Proposal(... */\n      dup2\n      mstore\n      0x20\n      add\n        /* \"VotingContract.sol\":1356:1357  0 */\n      0x00\n        /* \"VotingContract.sol\":1306:1423  Proposal(... */\n      dup2\n      mstore\n      0x20\n      add\n        /* \"VotingContract.sol\":1372:1373  0 */\n      0x00\n        /* \"VotingContract.sol\":1306:1423  Proposal(... */\n      dup2\n      mstore\n      0x20\n      add\n        /* \"VotingContract.sol\":1406:1412  3 days */\n      0x03f480\n        /* \"VotingContract.sol\":1388:1403  block.timestamp */\n      timestamp\n        /* \"VotingContract.sol\":1388:1412  block.timestamp + 3 days */\n      tag_80\n      swap2\n      swap1\n      tag_65\n      jump\t// in\n    tag_80:\n        /* \"VotingContract.sol\":1306:1423  Proposal(... */\n      dup2\n      mstore\n      pop\n        /* \"VotingContract.sol\":1281:1423  Proposal memory propos = Proposal(... */\n      swap1\n      pop\n        /* \"VotingContract.sol\":1436:1449  proposalCount */\n      0x02\n      0x00\n        /* \"VotingContract.sol\":1434:1449  ++proposalCount */\n      dup2\n      sload\n      tag_81\n      swap1\n      tag_82\n      jump\t// in\n    tag_81:\n      swap2\n      swap1\n      pop\n      dup2\n      swap1\n      sstore\n      pop\n        /* \"VotingContract.sol\":1460:1469  proposals */\n      0x01\n        /* \"VotingContract.sol\":1475:1481  propos */\n      dup2\n        /* \"VotingContract.sol\":1460:1482  proposals.push(propos) */\n      swap1\n      dup1\n      0x01\n      dup2\n      sload\n      add\n      dup1\n      dup3\n      sstore\n      dup1\n      swap2\n      pop\n      pop\n      0x01\n      swap1\n      sub\n      swap1\n      0x00\n      mstore\n      keccak256(0x00, 0x20)\n      swap1\n      0x04\n      mul\n      add\n      0x00\n      swap1\n      swap2\n      swap1\n      swap2\n      swap1\n      swap2\n      pop\n      0x00\n      dup3\n      add\n      mload\n      dup2\n      0x00\n      add\n      swap1\n      dup2\n      tag_84\n      swap2\n      swap1\n      tag_85\n      jump\t// in\n    tag_84:\n      pop\n      0x20\n      dup3\n      add\n      mload\n      dup2\n      0x01\n      add\n      sstore\n      0x40\n      dup3\n      add\n      mload\n      dup2\n      0x02\n      add\n      sstore\n      0x60\n      dup3\n      add\n      mload\n      dup2\n      0x03\n      add\n      sstore\n      pop\n      pop\n        /* \"VotingContract.sol\":1498:1528  ECreateProposal(proposalCount) */\n      0xcd60ce1b3bfcaf4be4681239b37e4c30fcb95e4b6d3da5b1679aed03ad47fed0\n        /* \"VotingContract.sol\":1514:1527  proposalCount */\n      sload(0x02)\n        /* \"VotingContract.sol\":1498:1528  ECreateProposal(proposalCount) */\n      mload(0x40)\n      tag_86\n      swap2\n      swap1\n      tag_40\n      jump\t// in\n    tag_86:\n      mload(0x40)\n      dup1\n      swap2\n      sub\n      swap1\n      log1\n        /* \"VotingContract.sol\":1204:1536  {... */\n      pop\n        /* \"VotingContract.sol\":1144:1536  function createProposal (string memory _description) public {... */\n      pop\n      jump\t// out\n        /* \"VotingContract.sol\":2047:2598  function finalizeProposal(uint256 proposalId) public {... */\n    tag_32:\n        /* \"VotingContract.sol\":2138:2147  proposals */\n      0x01\n        /* \"VotingContract.sol\":2148:2158  proposalId */\n      dup2\n        /* \"VotingContract.sol\":2138:2159  proposals[proposalId] */\n      dup2\n      sload\n      dup2\n      lt\n      tag_88\n      jumpi\n      tag_89\n      tag_62\n      jump\t// in\n    tag_89:\n    tag_88:\n      swap1\n      0x00\n      mstore\n      keccak256(0x00, 0x20)\n      swap1\n      0x04\n      mul\n      add\n        /* \"VotingContract.sol\":2138:2169  proposals[proposalId].timestamp */\n      0x03\n      add\n      sload\n        /* \"VotingContract.sol\":2119:2134  block.timestamp */\n      timestamp\n        /* \"VotingContract.sol\":2119:2169  block.timestamp >= proposals[proposalId].timestamp */\n      lt\n      iszero\n        /* \"VotingContract.sol\":2111:2183  require(block.timestamp >= proposals[proposalId].timestamp, \"Not ended\") */\n      tag_91\n      jumpi\n      mload(0x40)\n      0x08c379a000000000000000000000000000000000000000000000000000000000\n      dup2\n      mstore\n      0x04\n      add\n      tag_92\n      swap1\n      tag_93\n      jump\t// in\n    tag_92:\n      mload(0x40)\n      dup1\n      swap2\n      sub\n      swap1\n      revert\n    tag_91:\n        /* \"VotingContract.sol\":2194:2210  uint256 yesCount */\n      0x00\n        /* \"VotingContract.sol\":2213:2222  proposals */\n      0x01\n        /* \"VotingContract.sol\":2223:2233  proposalId */\n      dup3\n        /* \"VotingContract.sol\":2213:2234  proposals[proposalId] */\n      dup2\n      sload\n      dup2\n      lt\n      tag_94\n      jumpi\n      tag_95\n      tag_62\n      jump\t// in\n    tag_95:\n    tag_94:\n      swap1\n      0x00\n      mstore\n      keccak256(0x00, 0x20)\n      swap1\n      0x04\n      mul\n      add\n        /* \"VotingContract.sol\":2213:2243  proposals[proposalId].yesCount */\n      0x01\n      add\n      sload\n        /* \"VotingContract.sol\":2194:2243  uint256 yesCount = proposals[proposalId].yesCount */\n      swap1\n      pop\n        /* \"VotingContract.sol\":2254:2273  uint256 totalSupply */\n      0x00\n        /* \"VotingContract.sol\":2276:2287  votingToken */\n      dup1\n      0x00\n      swap1\n      sload\n      swap1\n      0x0100\n      exp\n      swap1\n      div\n      0xffffffffffffffffffffffffffffffffffffffff\n      and\n        /* \"VotingContract.sol\":2276:2299  votingToken.totalSupply */\n      0xffffffffffffffffffffffffffffffffffffffff\n      and\n      0x18160ddd\n        /* \"VotingContract.sol\":2276:2301  votingToken.totalSupply() */\n      mload(0x40)\n      dup2\n      0xffffffff\n      and\n      0xe0\n      shl\n      dup2\n      mstore\n      0x04\n      add\n      0x20\n      mload(0x40)\n      dup1\n      dup4\n      sub\n      dup2\n      0x00\n      dup8\n      gas\n      call\n      iszero\n      dup1\n      iszero\n      tag_98\n      jumpi\n      returndatasize\n      0x00\n      dup1\n      returndatacopy\n      revert(0x00, returndatasize)\n    tag_98:\n      pop\n      pop\n      pop\n      pop\n      mload(0x40)\n      returndatasize\n      not(0x1f)\n      0x1f\n      dup3\n      add\n      and\n      dup3\n      add\n      dup1\n      0x40\n      mstore\n      pop\n      dup2\n      add\n      swap1\n      tag_99\n      swap2\n      swap1\n      tag_58\n      jump\t// in\n    tag_99:\n        /* \"VotingContract.sol\":2254:2301  uint256 totalSupply = votingToken.totalSupply() */\n      swap1\n      pop\n        /* \"VotingContract.sol\":2312:2333  uint256 totalYesVoted */\n      0x00\n        /* \"VotingContract.sol\":2361:2364  100 */\n      0x64\n        /* \"VotingContract.sol\":2347:2358  totalSupply */\n      dup3\n        /* \"VotingContract.sol\":2336:2344  yesCount */\n      dup5\n        /* \"VotingContract.sol\":2336:2358  yesCount / totalSupply */\n      tag_100\n      swap2\n      swap1\n      tag_101\n      jump\t// in\n    tag_100:\n        /* \"VotingContract.sol\":2336:2364  yesCount / totalSupply * 100 */\n      tag_102\n      swap2\n      swap1\n      tag_103\n      jump\t// in\n    tag_102:\n        /* \"VotingContract.sol\":2312:2364  uint256 totalYesVoted = yesCount / totalSupply * 100 */\n      swap1\n      pop\n        /* \"VotingContract.sol\":2395:2397  50 */\n      0x32\n        /* \"VotingContract.sol\":2379:2392  totalYesVoted */\n      dup2\n        /* \"VotingContract.sol\":2379:2397  totalYesVoted > 50 */\n      gt\n        /* \"VotingContract.sol\":2375:2526  if (totalYesVoted > 50) {... */\n      iszero\n      tag_104\n      jumpi\n        /* \"VotingContract.sol\":2443:2447  true */\n      0x01\n        /* \"VotingContract.sol\":2414:2428  resultProposal */\n      0x04\n        /* \"VotingContract.sol\":2414:2440  resultProposal[proposalId] */\n      0x00\n        /* \"VotingContract.sol\":2429:2439  proposalId */\n      dup7\n        /* \"VotingContract.sol\":2414:2440  resultProposal[proposalId] */\n      dup2\n      mstore\n      0x20\n      add\n      swap1\n      dup2\n      mstore\n      0x20\n      add\n      0x00\n      keccak256\n      0x00\n        /* \"VotingContract.sol\":2414:2447  resultProposal[proposalId] = true */\n      0x0100\n      exp\n      dup2\n      sload\n      dup2\n      0xff\n      mul\n      not\n      and\n      swap1\n      dup4\n      iszero\n      iszero\n      mul\n      or\n      swap1\n      sstore\n      pop\n        /* \"VotingContract.sol\":2375:2526  if (totalYesVoted > 50) {... */\n      jump(tag_105)\n    tag_104:\n        /* \"VotingContract.sol\":2509:2514  false */\n      0x00\n        /* \"VotingContract.sol\":2480:2494  resultProposal */\n      0x04\n        /* \"VotingContract.sol\":2480:2506  resultProposal[proposalId] */\n      0x00\n        /* \"VotingContract.sol\":2495:2505  proposalId */\n      dup7\n        /* \"VotingContract.sol\":2480:2506  resultProposal[proposalId] */\n      dup2\n      mstore\n      0x20\n      add\n      swap1\n      dup2\n      mstore\n      0x20\n      add\n      0x00\n      keccak256\n      0x00\n        /* \"VotingContract.sol\":2480:2514  resultProposal[proposalId] = false */\n      0x0100\n      exp\n      dup2\n      sload\n      dup2\n      0xff\n      mul\n      not\n      and\n      swap1\n      dup4\n      iszero\n      iszero\n      mul\n      or\n      swap1\n      sstore\n      pop\n        /* \"VotingContract.sol\":2375:2526  if (totalYesVoted > 50) {... */\n    tag_105:\n        /* \"VotingContract.sol\":2541:2590  EFinalize(proposalId, resultProposal[proposalId]) */\n      0x2dae7d7f9bf4be3977892be3940f6d40bcdfb213d5cc1d55f247cb816b1bdc21\n        /* \"VotingContract.sol\":2551:2561  proposalId */\n      dup5\n        /* \"VotingContract.sol\":2563:2577  resultProposal */\n      0x04\n        /* \"VotingContract.sol\":2563:2589  resultProposal[proposalId] */\n      0x00\n        /* \"VotingContract.sol\":2578:2588  proposalId */\n      dup8\n        /* \"VotingContract.sol\":2563:2589  resultProposal[proposalId] */\n      dup2\n      mstore\n      0x20\n      add\n      swap1\n      dup2\n      mstore\n      0x20\n      add\n      0x00\n      keccak256\n      0x00\n      swap1\n      sload\n      swap1\n      0x0100\n      exp\n      swap1\n      div\n      0xff\n      and\n        /* \"VotingContract.sol\":2541:2590  EFinalize(proposalId, resultProposal[proposalId]) */\n      mload(0x40)\n      tag_106\n      swap3\n      swap2\n      swap1\n      tag_107\n      jump\t// in\n    tag_106:\n      mload(0x40)\n      dup1\n      swap2\n      sub\n      swap1\n      log1\n        /* \"VotingContract.sol\":2100:2598  {... */\n      pop\n      pop\n      pop\n        /* \"VotingContract.sol\":2047:2598  function finalizeProposal(uint256 proposalId) public {... */\n      pop\n      jump\t// out\n        /* \"VotingContract.sol\":516:541  IToken public votingToken */\n    tag_34:\n      0x00\n      dup1\n      sload\n      swap1\n      0x0100\n      exp\n      swap1\n      div\n      0xffffffffffffffffffffffffffffffffffffffff\n      and\n      dup2\n      jump\t// out\n        /* \"VotingContract.sol\":582:610  uint256 public proposalCount */\n    tag_38:\n      sload(0x02)\n      dup2\n      jump\t// out\n        /* \"#utility.yul\":7:82   */\n    tag_108:\n        /* \"#utility.yul\":40:46   */\n      0x00\n        /* \"#utility.yul\":73:75   */\n      0x40\n        /* \"#utility.yul\":67:76   */\n      mload\n        /* \"#utility.yul\":57:76   */\n      swap1\n      pop\n        /* \"#utility.yul\":7:82   */\n      swap1\n      jump\t// out\n        /* \"#utility.yul\":88:205   */\n    tag_109:\n        /* \"#utility.yul\":197:198   */\n      0x00\n        /* \"#utility.yul\":194:195   */\n      dup1\n        /* \"#utility.yul\":187:199   */\n      revert\n        /* \"#utility.yul\":211:328   */\n    tag_110:\n        /* \"#utility.yul\":320:321   */\n      0x00\n        /* \"#utility.yul\":317:318   */\n      dup1\n        /* \"#utility.yul\":310:322   */\n      revert\n        /* \"#utility.yul\":334:411   */\n    tag_111:\n        /* \"#utility.yul\":371:378   */\n      0x00\n        /* \"#utility.yul\":400:405   */\n      dup2\n        /* \"#utility.yul\":389:405   */\n      swap1\n      pop\n        /* \"#utility.yul\":334:411   */\n      swap2\n      swap1\n      pop\n      jump\t// out\n        /* \"#utility.yul\":417:539   */\n    tag_112:\n        /* \"#utility.yul\":490:514   */\n      tag_173\n        /* \"#utility.yul\":508:513   */\n      dup2\n        /* \"#utility.yul\":490:514   */\n      tag_111\n      jump\t// in\n    tag_173:\n        /* \"#utility.yul\":483:488   */\n      dup2\n        /* \"#utility.yul\":480:515   */\n      eq\n        /* \"#utility.yul\":470:533   */\n      tag_174\n      jumpi\n        /* \"#utility.yul\":529:530   */\n      0x00\n        /* \"#utility.yul\":526:527   */\n      dup1\n        /* \"#utility.yul\":519:531   */\n      revert\n        /* \"#utility.yul\":470:533   */\n    tag_174:\n        /* \"#utility.yul\":417:539   */\n      pop\n      jump\t// out\n        /* \"#utility.yul\":545:684   */\n    tag_113:\n        /* \"#utility.yul\":591:596   */\n      0x00\n        /* \"#utility.yul\":629:635   */\n      dup2\n        /* \"#utility.yul\":616:636   */\n      calldataload\n        /* \"#utility.yul\":607:636   */\n      swap1\n      pop\n        /* \"#utility.yul\":645:678   */\n      tag_176\n        /* \"#utility.yul\":672:677   */\n      dup2\n        /* \"#utility.yul\":645:678   */\n      tag_112\n      jump\t// in\n    tag_176:\n        /* \"#utility.yul\":545:684   */\n      swap3\n      swap2\n      pop\n      pop\n      jump\t// out\n        /* \"#utility.yul\":690:1019   */\n    tag_13:\n        /* \"#utility.yul\":749:755   */\n      0x00\n        /* \"#utility.yul\":798:800   */\n      0x20\n        /* \"#utility.yul\":786:795   */\n      dup3\n        /* \"#utility.yul\":777:784   */\n      dup5\n        /* \"#utility.yul\":773:796   */\n      sub\n        /* \"#utility.yul\":769:801   */\n      slt\n        /* \"#utility.yul\":766:885   */\n      iszero\n      tag_178\n      jumpi\n        /* \"#utility.yul\":804:883   */\n      tag_179\n      tag_109\n      jump\t// in\n    tag_179:\n        /* \"#utility.yul\":766:885   */\n    tag_178:\n        /* \"#utility.yul\":924:925   */\n      0x00\n        /* \"#utility.yul\":949:1002   */\n      tag_180\n        /* \"#utility.yul\":994:1001   */\n      dup5\n        /* \"#utility.yul\":985:991   */\n      dup3\n        /* \"#utility.yul\":974:983   */\n      dup6\n        /* \"#utility.yul\":970:992   */\n      add\n        /* \"#utility.yul\":949:1002   */\n      tag_113\n      jump\t// in\n    tag_180:\n        /* \"#utility.yul\":939:1002   */\n      swap2\n      pop\n        /* \"#utility.yul\":895:1012   */\n      pop\n        /* \"#utility.yul\":690:1019   */\n      swap3\n      swap2\n      pop\n      pop\n      jump\t// out\n        /* \"#utility.yul\":1025:1124   */\n    tag_114:\n        /* \"#utility.yul\":1077:1083   */\n      0x00\n        /* \"#utility.yul\":1111:1116   */\n      dup2\n        /* \"#utility.yul\":1105:1117   */\n      mload\n        /* \"#utility.yul\":1095:1117   */\n      swap1\n      pop\n        /* \"#utility.yul\":1025:1124   */\n      swap2\n      swap1\n      pop\n      jump\t// out\n        /* \"#utility.yul\":1130:1299   */\n    tag_115:\n        /* \"#utility.yul\":1214:1225   */\n      0x00\n        /* \"#utility.yul\":1248:1254   */\n      dup3\n        /* \"#utility.yul\":1243:1246   */\n      dup3\n        /* \"#utility.yul\":1236:1255   */\n      mstore\n        /* \"#utility.yul\":1288:1292   */\n      0x20\n        /* \"#utility.yul\":1283:1286   */\n      dup3\n        /* \"#utility.yul\":1279:1293   */\n      add\n        /* \"#utility.yul\":1264:1293   */\n      swap1\n      pop\n        /* \"#utility.yul\":1130:1299   */\n      swap3\n      swap2\n      pop\n      pop\n      jump\t// out\n        /* \"#utility.yul\":1305:1551   */\n    tag_116:\n        /* \"#utility.yul\":1386:1387   */\n      0x00\n        /* \"#utility.yul\":1396:1509   */\n    tag_184:\n        /* \"#utility.yul\":1410:1416   */\n      dup4\n        /* \"#utility.yul\":1407:1408   */\n      dup2\n        /* \"#utility.yul\":1404:1417   */\n      lt\n        /* \"#utility.yul\":1396:1509   */\n      iszero\n      tag_186\n      jumpi\n        /* \"#utility.yul\":1495:1496   */\n      dup1\n        /* \"#utility.yul\":1490:1493   */\n      dup3\n        /* \"#utility.yul\":1486:1497   */\n      add\n        /* \"#utility.yul\":1480:1498   */\n      mload\n        /* \"#utility.yul\":1476:1477   */\n      dup2\n        /* \"#utility.yul\":1471:1474   */\n      dup5\n        /* \"#utility.yul\":1467:1478   */\n      add\n        /* \"#utility.yul\":1460:1499   */\n      mstore\n        /* \"#utility.yul\":1432:1434   */\n      0x20\n        /* \"#utility.yul\":1429:1430   */\n      dup2\n        /* \"#utility.yul\":1425:1435   */\n      add\n        /* \"#utility.yul\":1420:1435   */\n      swap1\n      pop\n        /* \"#utility.yul\":1396:1509   */\n      jump(tag_184)\n    tag_186:\n        /* \"#utility.yul\":1543:1544   */\n      0x00\n        /* \"#utility.yul\":1534:1540   */\n      dup5\n        /* \"#utility.yul\":1529:1532   */\n      dup5\n        /* \"#utility.yul\":1525:1541   */\n      add\n        /* \"#utility.yul\":1518:1545   */\n      mstore\n        /* \"#utility.yul\":1367:1551   */\n      pop\n        /* \"#utility.yul\":1305:1551   */\n      pop\n      pop\n      pop\n      jump\t// out\n        /* \"#utility.yul\":1557:1659   */\n    tag_117:\n        /* \"#utility.yul\":1598:1604   */\n      0x00\n        /* \"#utility.yul\":1649:1651   */\n      0x1f\n        /* \"#utility.yul\":1645:1652   */\n      not\n        /* \"#utility.yul\":1640:1642   */\n      0x1f\n        /* \"#utility.yul\":1633:1638   */\n      dup4\n        /* \"#utility.yul\":1629:1643   */\n      add\n        /* \"#utility.yul\":1625:1653   */\n      and\n        /* \"#utility.yul\":1615:1653   */\n      swap1\n      pop\n        /* \"#utility.yul\":1557:1659   */\n      swap2\n      swap1\n      pop\n      jump\t// out\n        /* \"#utility.yul\":1665:2042   */\n    tag_118:\n        /* \"#utility.yul\":1753:1756   */\n      0x00\n        /* \"#utility.yul\":1781:1820   */\n      tag_189\n        /* \"#utility.yul\":1814:1819   */\n      dup3\n        /* \"#utility.yul\":1781:1820   */\n      tag_114\n      jump\t// in\n    tag_189:\n        /* \"#utility.yul\":1836:1907   */\n      tag_190\n        /* \"#utility.yul\":1900:1906   */\n      dup2\n        /* \"#utility.yul\":1895:1898   */\n      dup6\n        /* \"#utility.yul\":1836:1907   */\n      tag_115\n      jump\t// in\n    tag_190:\n        /* \"#utility.yul\":1829:1907   */\n      swap4\n      pop\n        /* \"#utility.yul\":1916:1981   */\n      tag_191\n        /* \"#utility.yul\":1974:1980   */\n      dup2\n        /* \"#utility.yul\":1969:1972   */\n      dup6\n        /* \"#utility.yul\":1962:1966   */\n      0x20\n        /* \"#utility.yul\":1955:1960   */\n      dup7\n        /* \"#utility.yul\":1951:1967   */\n      add\n        /* \"#utility.yul\":1916:1981   */\n      tag_116\n      jump\t// in\n    tag_191:\n        /* \"#utility.yul\":2006:2035   */\n      tag_192\n        /* \"#utility.yul\":2028:2034   */\n      dup2\n        /* \"#utility.yul\":2006:2035   */\n      tag_117\n      jump\t// in\n    tag_192:\n        /* \"#utility.yul\":2001:2004   */\n      dup5\n        /* \"#utility.yul\":1997:2036   */\n      add\n        /* \"#utility.yul\":1990:2036   */\n      swap2\n      pop\n        /* \"#utility.yul\":1757:2042   */\n      pop\n        /* \"#utility.yul\":1665:2042   */\n      swap3\n      swap2\n      pop\n      pop\n      jump\t// out\n        /* \"#utility.yul\":2048:2166   */\n    tag_119:\n        /* \"#utility.yul\":2135:2159   */\n      tag_194\n        /* \"#utility.yul\":2153:2158   */\n      dup2\n        /* \"#utility.yul\":2135:2159   */\n      tag_111\n      jump\t// in\n    tag_194:\n        /* \"#utility.yul\":2130:2133   */\n      dup3\n        /* \"#utility.yul\":2123:2160   */\n      mstore\n        /* \"#utility.yul\":2048:2166   */\n      pop\n      pop\n      jump\t// out\n        /* \"#utility.yul\":2172:2816   */\n    tag_16:\n        /* \"#utility.yul\":2369:2373   */\n      0x00\n        /* \"#utility.yul\":2407:2410   */\n      0x80\n        /* \"#utility.yul\":2396:2405   */\n      dup3\n        /* \"#utility.yul\":2392:2411   */\n      add\n        /* \"#utility.yul\":2384:2411   */\n      swap1\n      pop\n        /* \"#utility.yul\":2457:2466   */\n      dup2\n        /* \"#utility.yul\":2451:2455   */\n      dup2\n        /* \"#utility.yul\":2447:2467   */\n      sub\n        /* \"#utility.yul\":2443:2444   */\n      0x00\n        /* \"#utility.yul\":2432:2441   */\n      dup4\n        /* \"#utility.yul\":2428:2445   */\n      add\n        /* \"#utility.yul\":2421:2468   */\n      mstore\n        /* \"#utility.yul\":2485:2563   */\n      tag_196\n        /* \"#utility.yul\":2558:2562   */\n      dup2\n        /* \"#utility.yul\":2549:2555   */\n      dup8\n        /* \"#utility.yul\":2485:2563   */\n      tag_118\n      jump\t// in\n    tag_196:\n        /* \"#utility.yul\":2477:2563   */\n      swap1\n      pop\n        /* \"#utility.yul\":2573:2645   */\n      tag_197\n        /* \"#utility.yul\":2641:2643   */\n      0x20\n        /* \"#utility.yul\":2630:2639   */\n      dup4\n        /* \"#utility.yul\":2626:2644   */\n      add\n        /* \"#utility.yul\":2617:2623   */\n      dup7\n        /* \"#utility.yul\":2573:2645   */\n      tag_119\n      jump\t// in\n    tag_197:\n        /* \"#utility.yul\":2655:2727   */\n      tag_198\n        /* \"#utility.yul\":2723:2725   */\n      0x40\n        /* \"#utility.yul\":2712:2721   */\n      dup4\n        /* \"#utility.yul\":2708:2726   */\n      add\n        /* \"#utility.yul\":2699:2705   */\n      dup6\n        /* \"#utility.yul\":2655:2727   */\n      tag_119\n      jump\t// in\n    tag_198:\n        /* \"#utility.yul\":2737:2809   */\n      tag_199\n        /* \"#utility.yul\":2805:2807   */\n      0x60\n        /* \"#utility.yul\":2794:2803   */\n      dup4\n        /* \"#utility.yul\":2790:2808   */\n      add\n        /* \"#utility.yul\":2781:2787   */\n      dup5\n        /* \"#utility.yul\":2737:2809   */\n      tag_119\n      jump\t// in\n    tag_199:\n        /* \"#utility.yul\":2172:2816   */\n      swap6\n      swap5\n      pop\n      pop\n      pop\n      pop\n      pop\n      jump\t// out\n        /* \"#utility.yul\":2822:2912   */\n    tag_120:\n        /* \"#utility.yul\":2856:2863   */\n      0x00\n        /* \"#utility.yul\":2899:2904   */\n      dup2\n        /* \"#utility.yul\":2892:2905   */\n      iszero\n        /* \"#utility.yul\":2885:2906   */\n      iszero\n        /* \"#utility.yul\":2874:2906   */\n      swap1\n      pop\n        /* \"#utility.yul\":2822:2912   */\n      swap2\n      swap1\n      pop\n      jump\t// out\n        /* \"#utility.yul\":2918:3027   */\n    tag_121:\n        /* \"#utility.yul\":2999:3020   */\n      tag_202\n        /* \"#utility.yul\":3014:3019   */\n      dup2\n        /* \"#utility.yul\":2999:3020   */\n      tag_120\n      jump\t// in\n    tag_202:\n        /* \"#utility.yul\":2994:2997   */\n      dup3\n        /* \"#utility.yul\":2987:3021   */\n      mstore\n        /* \"#utility.yul\":2918:3027   */\n      pop\n      pop\n      jump\t// out\n        /* \"#utility.yul\":3033:3243   */\n    tag_21:\n        /* \"#utility.yul\":3120:3124   */\n      0x00\n        /* \"#utility.yul\":3158:3160   */\n      0x20\n        /* \"#utility.yul\":3147:3156   */\n      dup3\n        /* \"#utility.yul\":3143:3161   */\n      add\n        /* \"#utility.yul\":3135:3161   */\n      swap1\n      pop\n        /* \"#utility.yul\":3171:3236   */\n      tag_204\n        /* \"#utility.yul\":3233:3234   */\n      0x00\n        /* \"#utility.yul\":3222:3231   */\n      dup4\n        /* \"#utility.yul\":3218:3235   */\n      add\n        /* \"#utility.yul\":3209:3215   */\n      dup5\n        /* \"#utility.yul\":3171:3236   */\n      tag_121\n      jump\t// in\n    tag_204:\n        /* \"#utility.yul\":3033:3243   */\n      swap3\n      swap2\n      pop\n      pop\n      jump\t// out\n        /* \"#utility.yul\":3249:3365   */\n    tag_122:\n        /* \"#utility.yul\":3319:3340   */\n      tag_206\n        /* \"#utility.yul\":3334:3339   */\n      dup2\n        /* \"#utility.yul\":3319:3340   */\n      tag_120\n      jump\t// in\n    tag_206:\n        /* \"#utility.yul\":3312:3317   */\n      dup2\n        /* \"#utility.yul\":3309:3341   */\n      eq\n        /* \"#utility.yul\":3299:3359   */\n      tag_207\n      jumpi\n        /* \"#utility.yul\":3355:3356   */\n      0x00\n        /* \"#utility.yul\":3352:3353   */\n      dup1\n        /* \"#utility.yul\":3345:3357   */\n      revert\n        /* \"#utility.yul\":3299:3359   */\n    tag_207:\n        /* \"#utility.yul\":3249:3365   */\n      pop\n      jump\t// out\n        /* \"#utility.yul\":3371:3504   */\n    tag_123:\n        /* \"#utility.yul\":3414:3419   */\n      0x00\n        /* \"#utility.yul\":3452:3458   */\n      dup2\n        /* \"#utility.yul\":3439:3459   */\n      calldataload\n        /* \"#utility.yul\":3430:3459   */\n      swap1\n      pop\n        /* \"#utility.yul\":3468:3498   */\n      tag_209\n        /* \"#utility.yul\":3492:3497   */\n      dup2\n        /* \"#utility.yul\":3468:3498   */\n      tag_122\n      jump\t// in\n    tag_209:\n        /* \"#utility.yul\":3371:3504   */\n      swap3\n      swap2\n      pop\n      pop\n      jump\t// out\n        /* \"#utility.yul\":3510:3978   */\n    tag_24:\n        /* \"#utility.yul\":3575:3581   */\n      0x00\n        /* \"#utility.yul\":3583:3589   */\n      dup1\n        /* \"#utility.yul\":3632:3634   */\n      0x40\n        /* \"#utility.yul\":3620:3629   */\n      dup4\n        /* \"#utility.yul\":3611:3618   */\n      dup6\n        /* \"#utility.yul\":3607:3630   */\n      sub\n        /* \"#utility.yul\":3603:3635   */\n      slt\n        /* \"#utility.yul\":3600:3719   */\n      iszero\n      tag_211\n      jumpi\n        /* \"#utility.yul\":3638:3717   */\n      tag_212\n      tag_109\n      jump\t// in\n    tag_212:\n        /* \"#utility.yul\":3600:3719   */\n    tag_211:\n        /* \"#utility.yul\":3758:3759   */\n      0x00\n        /* \"#utility.yul\":3783:3836   */\n      tag_213\n        /* \"#utility.yul\":3828:3835   */\n      dup6\n        /* \"#utility.yul\":3819:3825   */\n      dup3\n        /* \"#utility.yul\":3808:3817   */\n      dup7\n        /* \"#utility.yul\":3804:3826   */\n      add\n        /* \"#utility.yul\":3783:3836   */\n      tag_113\n      jump\t// in\n    tag_213:\n        /* \"#utility.yul\":3773:3836   */\n      swap3\n      pop\n        /* \"#utility.yul\":3729:3846   */\n      pop\n        /* \"#utility.yul\":3885:3887   */\n      0x20\n        /* \"#utility.yul\":3911:3961   */\n      tag_214\n        /* \"#utility.yul\":3953:3960   */\n      dup6\n        /* \"#utility.yul\":3944:3950   */\n      dup3\n        /* \"#utility.yul\":3933:3942   */\n      dup7\n        /* \"#utility.yul\":3929:3951   */\n      add\n        /* \"#utility.yul\":3911:3961   */\n      tag_123\n      jump\t// in\n    tag_214:\n        /* \"#utility.yul\":3901:3961   */\n      swap2\n      pop\n        /* \"#utility.yul\":3856:3971   */\n      pop\n        /* \"#utility.yul\":3510:3978   */\n      swap3\n      pop\n      swap3\n      swap1\n      pop\n      jump\t// out\n        /* \"#utility.yul\":3984:4101   */\n    tag_124:\n        /* \"#utility.yul\":4093:4094   */\n      0x00\n        /* \"#utility.yul\":4090:4091   */\n      dup1\n        /* \"#utility.yul\":4083:4095   */\n      revert\n        /* \"#utility.yul\":4107:4224   */\n    tag_125:\n        /* \"#utility.yul\":4216:4217   */\n      0x00\n        /* \"#utility.yul\":4213:4214   */\n      dup1\n        /* \"#utility.yul\":4206:4218   */\n      revert\n        /* \"#utility.yul\":4230:4410   */\n    tag_126:\n        /* \"#utility.yul\":4278:4355   */\n      0x4e487b7100000000000000000000000000000000000000000000000000000000\n        /* \"#utility.yul\":4275:4276   */\n      0x00\n        /* \"#utility.yul\":4268:4356   */\n      mstore\n        /* \"#utility.yul\":4375:4379   */\n      0x41\n        /* \"#utility.yul\":4372:4373   */\n      0x04\n        /* \"#utility.yul\":4365:4380   */\n      mstore\n        /* \"#utility.yul\":4399:4403   */\n      0x24\n        /* \"#utility.yul\":4396:4397   */\n      0x00\n        /* \"#utility.yul\":4389:4404   */\n      revert\n        /* \"#utility.yul\":4416:4697   */\n    tag_127:\n        /* \"#utility.yul\":4499:4526   */\n      tag_219\n        /* \"#utility.yul\":4521:4525   */\n      dup3\n        /* \"#utility.yul\":4499:4526   */\n      tag_117\n      jump\t// in\n    tag_219:\n        /* \"#utility.yul\":4491:4497   */\n      dup2\n        /* \"#utility.yul\":4487:4527   */\n      add\n        /* \"#utility.yul\":4629:4635   */\n      dup2\n        /* \"#utility.yul\":4617:4627   */\n      dup2\n        /* \"#utility.yul\":4614:4636   */\n      lt\n        /* \"#utility.yul\":4593:4611   */\n      0xffffffffffffffff\n        /* \"#utility.yul\":4581:4591   */\n      dup3\n        /* \"#utility.yul\":4578:4612   */\n      gt\n        /* \"#utility.yul\":4575:4637   */\n      or\n        /* \"#utility.yul\":4572:4660   */\n      iszero\n      tag_220\n      jumpi\n        /* \"#utility.yul\":4640:4658   */\n      tag_221\n      tag_126\n      jump\t// in\n    tag_221:\n        /* \"#utility.yul\":4572:4660   */\n    tag_220:\n        /* \"#utility.yul\":4680:4690   */\n      dup1\n        /* \"#utility.yul\":4676:4678   */\n      0x40\n        /* \"#utility.yul\":4669:4691   */\n      mstore\n        /* \"#utility.yul\":4459:4697   */\n      pop\n        /* \"#utility.yul\":4416:4697   */\n      pop\n      pop\n      jump\t// out\n        /* \"#utility.yul\":4703:4832   */\n    tag_128:\n        /* \"#utility.yul\":4737:4743   */\n      0x00\n        /* \"#utility.yul\":4764:4784   */\n      tag_223\n      tag_108\n      jump\t// in\n    tag_223:\n        /* \"#utility.yul\":4754:4784   */\n      swap1\n      pop\n        /* \"#utility.yul\":4793:4826   */\n      tag_224\n        /* \"#utility.yul\":4821:4825   */\n      dup3\n        /* \"#utility.yul\":4813:4819   */\n      dup3\n        /* \"#utility.yul\":4793:4826   */\n      tag_127\n      jump\t// in\n    tag_224:\n        /* \"#utility.yul\":4703:4832   */\n      swap2\n      swap1\n      pop\n      jump\t// out\n        /* \"#utility.yul\":4838:5146   */\n    tag_129:\n        /* \"#utility.yul\":4900:4904   */\n      0x00\n        /* \"#utility.yul\":4990:5008   */\n      0xffffffffffffffff\n        /* \"#utility.yul\":4982:4988   */\n      dup3\n        /* \"#utility.yul\":4979:5009   */\n      gt\n        /* \"#utility.yul\":4976:5032   */\n      iszero\n      tag_226\n      jumpi\n        /* \"#utility.yul\":5012:5030   */\n      tag_227\n      tag_126\n      jump\t// in\n    tag_227:\n        /* \"#utility.yul\":4976:5032   */\n    tag_226:\n        /* \"#utility.yul\":5050:5079   */\n      tag_228\n        /* \"#utility.yul\":5072:5078   */\n      dup3\n        /* \"#utility.yul\":5050:5079   */\n      tag_117\n      jump\t// in\n    tag_228:\n        /* \"#utility.yul\":5042:5079   */\n      swap1\n      pop\n        /* \"#utility.yul\":5134:5138   */\n      0x20\n        /* \"#utility.yul\":5128:5132   */\n      dup2\n        /* \"#utility.yul\":5124:5139   */\n      add\n        /* \"#utility.yul\":5116:5139   */\n      swap1\n      pop\n        /* \"#utility.yul\":4838:5146   */\n      swap2\n      swap1\n      pop\n      jump\t// out\n        /* \"#utility.yul\":5152:5298   */\n    tag_130:\n        /* \"#utility.yul\":5249:5255   */\n      dup3\n        /* \"#utility.yul\":5244:5247   */\n      dup2\n        /* \"#utility.yul\":5239:5242   */\n      dup4\n        /* \"#utility.yul\":5226:5256   */\n      calldatacopy\n        /* \"#utility.yul\":5290:5291   */\n      0x00\n        /* \"#utility.yul\":5281:5287   */\n      dup4\n        /* \"#utility.yul\":5276:5279   */\n      dup4\n        /* \"#utility.yul\":5272:5288   */\n      add\n        /* \"#utility.yul\":5265:5292   */\n      mstore\n        /* \"#utility.yul\":5152:5298   */\n      pop\n      pop\n      pop\n      jump\t// out\n        /* \"#utility.yul\":5304:5729   */\n    tag_131:\n        /* \"#utility.yul\":5382:5387   */\n      0x00\n        /* \"#utility.yul\":5407:5473   */\n      tag_231\n        /* \"#utility.yul\":5423:5472   */\n      tag_232\n        /* \"#utility.yul\":5465:5471   */\n      dup5\n        /* \"#utility.yul\":5423:5472   */\n      tag_129\n      jump\t// in\n    tag_232:\n        /* \"#utility.yul\":5407:5473   */\n      tag_128\n      jump\t// in\n    tag_231:\n        /* \"#utility.yul\":5398:5473   */\n      swap1\n      pop\n        /* \"#utility.yul\":5496:5502   */\n      dup3\n        /* \"#utility.yul\":5489:5494   */\n      dup2\n        /* \"#utility.yul\":5482:5503   */\n      mstore\n        /* \"#utility.yul\":5534:5538   */\n      0x20\n        /* \"#utility.yul\":5527:5532   */\n      dup2\n        /* \"#utility.yul\":5523:5539   */\n      add\n        /* \"#utility.yul\":5572:5575   */\n      dup5\n        /* \"#utility.yul\":5563:5569   */\n      dup5\n        /* \"#utility.yul\":5558:5561   */\n      dup5\n        /* \"#utility.yul\":5554:5570   */\n      add\n        /* \"#utility.yul\":5551:5576   */\n      gt\n        /* \"#utility.yul\":5548:5660   */\n      iszero\n      tag_233\n      jumpi\n        /* \"#utility.yul\":5579:5658   */\n      tag_234\n      tag_125\n      jump\t// in\n    tag_234:\n        /* \"#utility.yul\":5548:5660   */\n    tag_233:\n        /* \"#utility.yul\":5669:5723   */\n      tag_235\n        /* \"#utility.yul\":5716:5722   */\n      dup5\n        /* \"#utility.yul\":5711:5714   */\n      dup3\n        /* \"#utility.yul\":5706:5709   */\n      dup6\n        /* \"#utility.yul\":5669:5723   */\n      tag_130\n      jump\t// in\n    tag_235:\n        /* \"#utility.yul\":5388:5729   */\n      pop\n        /* \"#utility.yul\":5304:5729   */\n      swap4\n      swap3\n      pop\n      pop\n      pop\n      jump\t// out\n        /* \"#utility.yul\":5749:6089   */\n    tag_132:\n        /* \"#utility.yul\":5805:5810   */\n      0x00\n        /* \"#utility.yul\":5854:5857   */\n      dup3\n        /* \"#utility.yul\":5847:5851   */\n      0x1f\n        /* \"#utility.yul\":5839:5845   */\n      dup4\n        /* \"#utility.yul\":5835:5852   */\n      add\n        /* \"#utility.yul\":5831:5858   */\n      slt\n        /* \"#utility.yul\":5821:5943   */\n      tag_237\n      jumpi\n        /* \"#utility.yul\":5862:5941   */\n      tag_238\n      tag_124\n      jump\t// in\n    tag_238:\n        /* \"#utility.yul\":5821:5943   */\n    tag_237:\n        /* \"#utility.yul\":5979:5985   */\n      dup2\n        /* \"#utility.yul\":5966:5986   */\n      calldataload\n        /* \"#utility.yul\":6004:6083   */\n      tag_239\n        /* \"#utility.yul\":6079:6082   */\n      dup5\n        /* \"#utility.yul\":6071:6077   */\n      dup3\n        /* \"#utility.yul\":6064:6068   */\n      0x20\n        /* \"#utility.yul\":6056:6062   */\n      dup7\n        /* \"#utility.yul\":6052:6069   */\n      add\n        /* \"#utility.yul\":6004:6083   */\n      tag_131\n      jump\t// in\n    tag_239:\n        /* \"#utility.yul\":5995:6083   */\n      swap2\n      pop\n        /* \"#utility.yul\":5811:6089   */\n      pop\n        /* \"#utility.yul\":5749:6089   */\n      swap3\n      swap2\n      pop\n      pop\n      jump\t// out\n        /* \"#utility.yul\":6095:6604   */\n    tag_28:\n        /* \"#utility.yul\":6164:6170   */\n      0x00\n        /* \"#utility.yul\":6213:6215   */\n      0x20\n        /* \"#utility.yul\":6201:6210   */\n      dup3\n        /* \"#utility.yul\":6192:6199   */\n      dup5\n        /* \"#utility.yul\":6188:6211   */\n      sub\n        /* \"#utility.yul\":6184:6216   */\n      slt\n        /* \"#utility.yul\":6181:6300   */\n      iszero\n      tag_241\n      jumpi\n        /* \"#utility.yul\":6219:6298   */\n      tag_242\n      tag_109\n      jump\t// in\n    tag_242:\n        /* \"#utility.yul\":6181:6300   */\n    tag_241:\n        /* \"#utility.yul\":6367:6368   */\n      0x00\n        /* \"#utility.yul\":6356:6365   */\n      dup3\n        /* \"#utility.yul\":6352:6369   */\n      add\n        /* \"#utility.yul\":6339:6370   */\n      calldataload\n        /* \"#utility.yul\":6397:6415   */\n      0xffffffffffffffff\n        /* \"#utility.yul\":6389:6395   */\n      dup2\n        /* \"#utility.yul\":6386:6416   */\n      gt\n        /* \"#utility.yul\":6383:6500   */\n      iszero\n      tag_243\n      jumpi\n        /* \"#utility.yul\":6419:6498   */\n      tag_244\n      tag_110\n      jump\t// in\n    tag_244:\n        /* \"#utility.yul\":6383:6500   */\n    tag_243:\n        /* \"#utility.yul\":6524:6587   */\n      tag_245\n        /* \"#utility.yul\":6579:6586   */\n      dup5\n        /* \"#utility.yul\":6570:6576   */\n      dup3\n        /* \"#utility.yul\":6559:6568   */\n      dup6\n        /* \"#utility.yul\":6555:6577   */\n      add\n        /* \"#utility.yul\":6524:6587   */\n      tag_132\n      jump\t// in\n    tag_245:\n        /* \"#utility.yul\":6514:6587   */\n      swap2\n      pop\n        /* \"#utility.yul\":6310:6597   */\n      pop\n        /* \"#utility.yul\":6095:6604   */\n      swap3\n      swap2\n      pop\n      pop\n      jump\t// out\n        /* \"#utility.yul\":6610:6736   */\n    tag_133:\n        /* \"#utility.yul\":6647:6654   */\n      0x00\n        /* \"#utility.yul\":6687:6729   */\n      0xffffffffffffffffffffffffffffffffffffffff\n        /* \"#utility.yul\":6680:6685   */\n      dup3\n        /* \"#utility.yul\":6676:6730   */\n      and\n        /* \"#utility.yul\":6665:6730   */\n      swap1\n      pop\n        /* \"#utility.yul\":6610:6736   */\n      swap2\n      swap1\n      pop\n      jump\t// out\n        /* \"#utility.yul\":6742:6802   */\n    tag_134:\n        /* \"#utility.yul\":6770:6773   */\n      0x00\n        /* \"#utility.yul\":6791:6796   */\n      dup2\n        /* \"#utility.yul\":6784:6796   */\n      swap1\n      pop\n        /* \"#utility.yul\":6742:6802   */\n      swap2\n      swap1\n      pop\n      jump\t// out\n        /* \"#utility.yul\":6808:6950   */\n    tag_135:\n        /* \"#utility.yul\":6858:6867   */\n      0x00\n        /* \"#utility.yul\":6891:6944   */\n      tag_249\n        /* \"#utility.yul\":6909:6943   */\n      tag_250\n        /* \"#utility.yul\":6918:6942   */\n      tag_251\n        /* \"#utility.yul\":6936:6941   */\n      dup5\n        /* \"#utility.yul\":6918:6942   */\n      tag_133\n      jump\t// in\n    tag_251:\n        /* \"#utility.yul\":6909:6943   */\n      tag_134\n      jump\t// in\n    tag_250:\n        /* \"#utility.yul\":6891:6944   */\n      tag_133\n      jump\t// in\n    tag_249:\n        /* \"#utility.yul\":6878:6944   */\n      swap1\n      pop\n        /* \"#utility.yul\":6808:6950   */\n      swap2\n      swap1\n      pop\n      jump\t// out\n        /* \"#utility.yul\":6956:7082   */\n    tag_136:\n        /* \"#utility.yul\":7006:7015   */\n      0x00\n        /* \"#utility.yul\":7039:7076   */\n      tag_253\n        /* \"#utility.yul\":7070:7075   */\n      dup3\n        /* \"#utility.yul\":7039:7076   */\n      tag_135\n      jump\t// in\n    tag_253:\n        /* \"#utility.yul\":7026:7076   */\n      swap1\n      pop\n        /* \"#utility.yul\":6956:7082   */\n      swap2\n      swap1\n      pop\n      jump\t// out\n        /* \"#utility.yul\":7088:7227   */\n    tag_137:\n        /* \"#utility.yul\":7151:7160   */\n      0x00\n        /* \"#utility.yul\":7184:7221   */\n      tag_255\n        /* \"#utility.yul\":7215:7220   */\n      dup3\n        /* \"#utility.yul\":7184:7221   */\n      tag_136\n      jump\t// in\n    tag_255:\n        /* \"#utility.yul\":7171:7221   */\n      swap1\n      pop\n        /* \"#utility.yul\":7088:7227   */\n      swap2\n      swap1\n      pop\n      jump\t// out\n        /* \"#utility.yul\":7233:7390   */\n    tag_138:\n        /* \"#utility.yul\":7333:7383   */\n      tag_257\n        /* \"#utility.yul\":7377:7382   */\n      dup2\n        /* \"#utility.yul\":7333:7383   */\n      tag_137\n      jump\t// in\n    tag_257:\n        /* \"#utility.yul\":7328:7331   */\n      dup3\n        /* \"#utility.yul\":7321:7384   */\n      mstore\n        /* \"#utility.yul\":7233:7390   */\n      pop\n      pop\n      jump\t// out\n        /* \"#utility.yul\":7396:7644   */\n    tag_36:\n        /* \"#utility.yul\":7502:7506   */\n      0x00\n        /* \"#utility.yul\":7540:7542   */\n      0x20\n        /* \"#utility.yul\":7529:7538   */\n      dup3\n        /* \"#utility.yul\":7525:7543   */\n      add\n        /* \"#utility.yul\":7517:7543   */\n      swap1\n      pop\n        /* \"#utility.yul\":7553:7637   */\n      tag_259\n        /* \"#utility.yul\":7634:7635   */\n      0x00\n        /* \"#utility.yul\":7623:7632   */\n      dup4\n        /* \"#utility.yul\":7619:7636   */\n      add\n        /* \"#utility.yul\":7610:7616   */\n      dup5\n        /* \"#utility.yul\":7553:7637   */\n      tag_138\n      jump\t// in\n    tag_259:\n        /* \"#utility.yul\":7396:7644   */\n      swap3\n      swap2\n      pop\n      pop\n      jump\t// out\n        /* \"#utility.yul\":7650:7872   */\n    tag_40:\n        /* \"#utility.yul\":7743:7747   */\n      0x00\n        /* \"#utility.yul\":7781:7783   */\n      0x20\n        /* \"#utility.yul\":7770:7779   */\n      dup3\n        /* \"#utility.yul\":7766:7784   */\n      add\n        /* \"#utility.yul\":7758:7784   */\n      swap1\n      pop\n        /* \"#utility.yul\":7794:7865   */\n      tag_261\n        /* \"#utility.yul\":7862:7863   */\n      0x00\n        /* \"#utility.yul\":7851:7860   */\n      dup4\n        /* \"#utility.yul\":7847:7864   */\n      add\n        /* \"#utility.yul\":7838:7844   */\n      dup5\n        /* \"#utility.yul\":7794:7865   */\n      tag_119\n      jump\t// in\n    tag_261:\n        /* \"#utility.yul\":7650:7872   */\n      swap3\n      swap2\n      pop\n      pop\n      jump\t// out\n        /* \"#utility.yul\":7878:8058   */\n    tag_139:\n        /* \"#utility.yul\":7926:8003   */\n      0x4e487b7100000000000000000000000000000000000000000000000000000000\n        /* \"#utility.yul\":7923:7924   */\n      0x00\n        /* \"#utility.yul\":7916:8004   */\n      mstore\n        /* \"#utility.yul\":8023:8027   */\n      0x22\n        /* \"#utility.yul\":8020:8021   */\n      0x04\n        /* \"#utility.yul\":8013:8028   */\n      mstore\n        /* \"#utility.yul\":8047:8051   */\n      0x24\n        /* \"#utility.yul\":8044:8045   */\n      0x00\n        /* \"#utility.yul\":8037:8052   */\n      revert\n        /* \"#utility.yul\":8064:8384   */\n    tag_44:\n        /* \"#utility.yul\":8108:8114   */\n      0x00\n        /* \"#utility.yul\":8145:8146   */\n      0x02\n        /* \"#utility.yul\":8139:8143   */\n      dup3\n        /* \"#utility.yul\":8135:8147   */\n      div\n        /* \"#utility.yul\":8125:8147   */\n      swap1\n      pop\n        /* \"#utility.yul\":8192:8193   */\n      0x01\n        /* \"#utility.yul\":8186:8190   */\n      dup3\n        /* \"#utility.yul\":8182:8194   */\n      and\n        /* \"#utility.yul\":8213:8231   */\n      dup1\n        /* \"#utility.yul\":8203:8284   */\n      tag_264\n      jumpi\n        /* \"#utility.yul\":8269:8273   */\n      0x7f\n        /* \"#utility.yul\":8261:8267   */\n      dup3\n        /* \"#utility.yul\":8257:8274   */\n      and\n        /* \"#utility.yul\":8247:8274   */\n      swap2\n      pop\n        /* \"#utility.yul\":8203:8284   */\n    tag_264:\n        /* \"#utility.yul\":8331:8333   */\n      0x20\n        /* \"#utility.yul\":8323:8329   */\n      dup3\n        /* \"#utility.yul\":8320:8334   */\n      lt\n        /* \"#utility.yul\":8300:8318   */\n      dup2\n        /* \"#utility.yul\":8297:8335   */\n      sub\n        /* \"#utility.yul\":8294:8378   */\n      tag_265\n      jumpi\n        /* \"#utility.yul\":8350:8368   */\n      tag_266\n      tag_139\n      jump\t// in\n    tag_266:\n        /* \"#utility.yul\":8294:8378   */\n    tag_265:\n        /* \"#utility.yul\":8115:8384   */\n      pop\n        /* \"#utility.yul\":8064:8384   */\n      swap2\n      swap1\n      pop\n      jump\t// out\n        /* \"#utility.yul\":8390:8553   */\n    tag_140:\n        /* \"#utility.yul\":8530:8545   */\n      0x416c726561647920766f74656400000000000000000000000000000000000000\n        /* \"#utility.yul\":8526:8527   */\n      0x00\n        /* \"#utility.yul\":8518:8524   */\n      dup3\n        /* \"#utility.yul\":8514:8528   */\n      add\n        /* \"#utility.yul\":8507:8546   */\n      mstore\n        /* \"#utility.yul\":8390:8553   */\n      pop\n      jump\t// out\n        /* \"#utility.yul\":8559:8925   */\n    tag_141:\n        /* \"#utility.yul\":8701:8704   */\n      0x00\n        /* \"#utility.yul\":8722:8789   */\n      tag_269\n        /* \"#utility.yul\":8786:8788   */\n      0x0d\n        /* \"#utility.yul\":8781:8784   */\n      dup4\n        /* \"#utility.yul\":8722:8789   */\n      tag_115\n      jump\t// in\n    tag_269:\n        /* \"#utility.yul\":8715:8789   */\n      swap2\n      pop\n        /* \"#utility.yul\":8798:8891   */\n      tag_270\n        /* \"#utility.yul\":8887:8890   */\n      dup3\n        /* \"#utility.yul\":8798:8891   */\n      tag_140\n      jump\t// in\n    tag_270:\n        /* \"#utility.yul\":8916:8918   */\n      0x20\n        /* \"#utility.yul\":8911:8914   */\n      dup3\n        /* \"#utility.yul\":8907:8919   */\n      add\n        /* \"#utility.yul\":8900:8919   */\n      swap1\n      pop\n        /* \"#utility.yul\":8559:8925   */\n      swap2\n      swap1\n      pop\n      jump\t// out\n        /* \"#utility.yul\":8931:9350   */\n    tag_52:\n        /* \"#utility.yul\":9097:9101   */\n      0x00\n        /* \"#utility.yul\":9135:9137   */\n      0x20\n        /* \"#utility.yul\":9124:9133   */\n      dup3\n        /* \"#utility.yul\":9120:9138   */\n      add\n        /* \"#utility.yul\":9112:9138   */\n      swap1\n      pop\n        /* \"#utility.yul\":9184:9193   */\n      dup2\n        /* \"#utility.yul\":9178:9182   */\n      dup2\n        /* \"#utility.yul\":9174:9194   */\n      sub\n        /* \"#utility.yul\":9170:9171   */\n      0x00\n        /* \"#utility.yul\":9159:9168   */\n      dup4\n        /* \"#utility.yul\":9155:9172   */\n      add\n        /* \"#utility.yul\":9148:9195   */\n      mstore\n        /* \"#utility.yul\":9212:9343   */\n      tag_272\n        /* \"#utility.yul\":9338:9342   */\n      dup2\n        /* \"#utility.yul\":9212:9343   */\n      tag_141\n      jump\t// in\n    tag_272:\n        /* \"#utility.yul\":9204:9343   */\n      swap1\n      pop\n        /* \"#utility.yul\":8931:9350   */\n      swap2\n      swap1\n      pop\n      jump\t// out\n        /* \"#utility.yul\":9356:9452   */\n    tag_142:\n        /* \"#utility.yul\":9393:9400   */\n      0x00\n        /* \"#utility.yul\":9422:9446   */\n      tag_274\n        /* \"#utility.yul\":9440:9445   */\n      dup3\n        /* \"#utility.yul\":9422:9446   */\n      tag_133\n      jump\t// in\n    tag_274:\n        /* \"#utility.yul\":9411:9446   */\n      swap1\n      pop\n        /* \"#utility.yul\":9356:9452   */\n      swap2\n      swap1\n      pop\n      jump\t// out\n        /* \"#utility.yul\":9458:9576   */\n    tag_143:\n        /* \"#utility.yul\":9545:9569   */\n      tag_276\n        /* \"#utility.yul\":9563:9568   */\n      dup2\n        /* \"#utility.yul\":9545:9569   */\n      tag_142\n      jump\t// in\n    tag_276:\n        /* \"#utility.yul\":9540:9543   */\n      dup3\n        /* \"#utility.yul\":9533:9570   */\n      mstore\n        /* \"#utility.yul\":9458:9576   */\n      pop\n      pop\n      jump\t// out\n        /* \"#utility.yul\":9582:9804   */\n    tag_54:\n        /* \"#utility.yul\":9675:9679   */\n      0x00\n        /* \"#utility.yul\":9713:9715   */\n      0x20\n        /* \"#utility.yul\":9702:9711   */\n      dup3\n        /* \"#utility.yul\":9698:9716   */\n      add\n        /* \"#utility.yul\":9690:9716   */\n      swap1\n      pop\n        /* \"#utility.yul\":9726:9797   */\n      tag_278\n        /* \"#utility.yul\":9794:9795   */\n      0x00\n        /* \"#utility.yul\":9783:9792   */\n      dup4\n        /* \"#utility.yul\":9779:9796   */\n      add\n        /* \"#utility.yul\":9770:9776   */\n      dup5\n        /* \"#utility.yul\":9726:9797   */\n      tag_143\n      jump\t// in\n    tag_278:\n        /* \"#utility.yul\":9582:9804   */\n      swap3\n      swap2\n      pop\n      pop\n      jump\t// out\n        /* \"#utility.yul\":9810:9953   */\n    tag_144:\n        /* \"#utility.yul\":9867:9872   */\n      0x00\n        /* \"#utility.yul\":9898:9904   */\n      dup2\n        /* \"#utility.yul\":9892:9905   */\n      mload\n        /* \"#utility.yul\":9883:9905   */\n      swap1\n      pop\n        /* \"#utility.yul\":9914:9947   */\n      tag_280\n        /* \"#utility.yul\":9941:9946   */\n      dup2\n        /* \"#utility.yul\":9914:9947   */\n      tag_112\n      jump\t// in\n    tag_280:\n        /* \"#utility.yul\":9810:9953   */\n      swap3\n      swap2\n      pop\n      pop\n      jump\t// out\n        /* \"#utility.yul\":9959:10310   */\n    tag_58:\n        /* \"#utility.yul\":10029:10035   */\n      0x00\n        /* \"#utility.yul\":10078:10080   */\n      0x20\n        /* \"#utility.yul\":10066:10075   */\n      dup3\n        /* \"#utility.yul\":10057:10064   */\n      dup5\n        /* \"#utility.yul\":10053:10076   */\n      sub\n        /* \"#utility.yul\":10049:10081   */\n      slt\n        /* \"#utility.yul\":10046:10165   */\n      iszero\n      tag_282\n      jumpi\n        /* \"#utility.yul\":10084:10163   */\n      tag_283\n      tag_109\n      jump\t// in\n    tag_283:\n        /* \"#utility.yul\":10046:10165   */\n    tag_282:\n        /* \"#utility.yul\":10204:10205   */\n      0x00\n        /* \"#utility.yul\":10229:10293   */\n      tag_284\n        /* \"#utility.yul\":10285:10292   */\n      dup5\n        /* \"#utility.yul\":10276:10282   */\n      dup3\n        /* \"#utility.yul\":10265:10274   */\n      dup6\n        /* \"#utility.yul\":10261:10283   */\n      add\n        /* \"#utility.yul\":10229:10293   */\n      tag_144\n      jump\t// in\n    tag_284:\n        /* \"#utility.yul\":10219:10293   */\n      swap2\n      pop\n        /* \"#utility.yul\":10175:10303   */\n      pop\n        /* \"#utility.yul\":9959:10310   */\n      swap3\n      swap2\n      pop\n      pop\n      jump\t// out\n        /* \"#utility.yul\":10316:10496   */\n    tag_62:\n        /* \"#utility.yul\":10364:10441   */\n      0x4e487b7100000000000000000000000000000000000000000000000000000000\n        /* \"#utility.yul\":10361:10362   */\n      0x00\n        /* \"#utility.yul\":10354:10442   */\n      mstore\n        /* \"#utility.yul\":10461:10465   */\n      0x32\n        /* \"#utility.yul\":10458:10459   */\n      0x04\n        /* \"#utility.yul\":10451:10466   */\n      mstore\n        /* \"#utility.yul\":10485:10489   */\n      0x24\n        /* \"#utility.yul\":10482:10483   */\n      0x00\n        /* \"#utility.yul\":10475:10490   */\n      revert\n        /* \"#utility.yul\":10502:10682   */\n    tag_145:\n        /* \"#utility.yul\":10550:10627   */\n      0x4e487b7100000000000000000000000000000000000000000000000000000000\n        /* \"#utility.yul\":10547:10548   */\n      0x00\n        /* \"#utility.yul\":10540:10628   */\n      mstore\n        /* \"#utility.yul\":10647:10651   */\n      0x11\n        /* \"#utility.yul\":10644:10645   */\n      0x04\n        /* \"#utility.yul\":10637:10652   */\n      mstore\n        /* \"#utility.yul\":10671:10675   */\n      0x24\n        /* \"#utility.yul\":10668:10669   */\n      0x00\n        /* \"#utility.yul\":10661:10676   */\n      revert\n        /* \"#utility.yul\":10688:10879   */\n    tag_65:\n        /* \"#utility.yul\":10728:10731   */\n      0x00\n        /* \"#utility.yul\":10747:10767   */\n      tag_288\n        /* \"#utility.yul\":10765:10766   */\n      dup3\n        /* \"#utility.yul\":10747:10767   */\n      tag_111\n      jump\t// in\n    tag_288:\n        /* \"#utility.yul\":10742:10767   */\n      swap2\n      pop\n        /* \"#utility.yul\":10781:10801   */\n      tag_289\n        /* \"#utility.yul\":10799:10800   */\n      dup4\n        /* \"#utility.yul\":10781:10801   */\n      tag_111\n      jump\t// in\n    tag_289:\n        /* \"#utility.yul\":10776:10801   */\n      swap3\n      pop\n        /* \"#utility.yul\":10824:10825   */\n      dup3\n        /* \"#utility.yul\":10821:10822   */\n      dup3\n        /* \"#utility.yul\":10817:10826   */\n      add\n        /* \"#utility.yul\":10810:10826   */\n      swap1\n      pop\n        /* \"#utility.yul\":10845:10848   */\n      dup1\n        /* \"#utility.yul\":10842:10843   */\n      dup3\n        /* \"#utility.yul\":10839:10849   */\n      gt\n        /* \"#utility.yul\":10836:10872   */\n      iszero\n      tag_290\n      jumpi\n        /* \"#utility.yul\":10852:10870   */\n      tag_291\n      tag_145\n      jump\t// in\n    tag_291:\n        /* \"#utility.yul\":10836:10872   */\n    tag_290:\n        /* \"#utility.yul\":10688:10879   */\n      swap3\n      swap2\n      pop\n      pop\n      jump\t// out\n        /* \"#utility.yul\":10885:11217   */\n    tag_72:\n        /* \"#utility.yul\":11006:11010   */\n      0x00\n        /* \"#utility.yul\":11044:11046   */\n      0x40\n        /* \"#utility.yul\":11033:11042   */\n      dup3\n        /* \"#utility.yul\":11029:11047   */\n      add\n        /* \"#utility.yul\":11021:11047   */\n      swap1\n      pop\n        /* \"#utility.yul\":11057:11128   */\n      tag_293\n        /* \"#utility.yul\":11125:11126   */\n      0x00\n        /* \"#utility.yul\":11114:11123   */\n      dup4\n        /* \"#utility.yul\":11110:11127   */\n      add\n        /* \"#utility.yul\":11101:11107   */\n      dup6\n        /* \"#utility.yul\":11057:11128   */\n      tag_143\n      jump\t// in\n    tag_293:\n        /* \"#utility.yul\":11138:11210   */\n      tag_294\n        /* \"#utility.yul\":11206:11208   */\n      0x20\n        /* \"#utility.yul\":11195:11204   */\n      dup4\n        /* \"#utility.yul\":11191:11209   */\n      add\n        /* \"#utility.yul\":11182:11188   */\n      dup5\n        /* \"#utility.yul\":11138:11210   */\n      tag_119\n      jump\t// in\n    tag_294:\n        /* \"#utility.yul\":10885:11217   */\n      swap4\n      swap3\n      pop\n      pop\n      pop\n      jump\t// out\n        /* \"#utility.yul\":11223:11309   */\n    tag_146:\n        /* \"#utility.yul\":11269:11276   */\n      0x00\n        /* \"#utility.yul\":11298:11303   */\n      dup2\n        /* \"#utility.yul\":11287:11303   */\n      swap1\n      pop\n        /* \"#utility.yul\":11223:11309   */\n      swap2\n      swap1\n      pop\n      jump\t// out\n        /* \"#utility.yul\":11315:11475   */\n    tag_147:\n        /* \"#utility.yul\":11374:11383   */\n      0x00\n        /* \"#utility.yul\":11407:11469   */\n      tag_297\n        /* \"#utility.yul\":11425:11468   */\n      tag_298\n        /* \"#utility.yul\":11434:11467   */\n      tag_299\n        /* \"#utility.yul\":11461:11466   */\n      dup5\n        /* \"#utility.yul\":11434:11467   */\n      tag_146\n      jump\t// in\n    tag_299:\n        /* \"#utility.yul\":11425:11468   */\n      tag_134\n      jump\t// in\n    tag_298:\n        /* \"#utility.yul\":11407:11469   */\n      tag_111\n      jump\t// in\n    tag_297:\n        /* \"#utility.yul\":11394:11469   */\n      swap1\n      pop\n        /* \"#utility.yul\":11315:11475   */\n      swap2\n      swap1\n      pop\n      jump\t// out\n        /* \"#utility.yul\":11481:11630   */\n    tag_148:\n        /* \"#utility.yul\":11577:11623   */\n      tag_301\n        /* \"#utility.yul\":11617:11622   */\n      dup2\n        /* \"#utility.yul\":11577:11623   */\n      tag_147\n      jump\t// in\n    tag_301:\n        /* \"#utility.yul\":11572:11575   */\n      dup3\n        /* \"#utility.yul\":11565:11624   */\n      mstore\n        /* \"#utility.yul\":11481:11630   */\n      pop\n      pop\n      jump\t// out\n        /* \"#utility.yul\":11636:12096   */\n    tag_75:\n        /* \"#utility.yul\":11794:11798   */\n      0x00\n        /* \"#utility.yul\":11832:11834   */\n      0x60\n        /* \"#utility.yul\":11821:11830   */\n      dup3\n        /* \"#utility.yul\":11817:11835   */\n      add\n        /* \"#utility.yul\":11809:11835   */\n      swap1\n      pop\n        /* \"#utility.yul\":11845:11916   */\n      tag_303\n        /* \"#utility.yul\":11913:11914   */\n      0x00\n        /* \"#utility.yul\":11902:11911   */\n      dup4\n        /* \"#utility.yul\":11898:11915   */\n      add\n        /* \"#utility.yul\":11889:11895   */\n      dup7\n        /* \"#utility.yul\":11845:11916   */\n      tag_143\n      jump\t// in\n    tag_303:\n        /* \"#utility.yul\":11926:11998   */\n      tag_304\n        /* \"#utility.yul\":11994:11996   */\n      0x20\n        /* \"#utility.yul\":11983:11992   */\n      dup4\n        /* \"#utility.yul\":11979:11997   */\n      add\n        /* \"#utility.yul\":11970:11976   */\n      dup6\n        /* \"#utility.yul\":11926:11998   */\n      tag_143\n      jump\t// in\n    tag_304:\n        /* \"#utility.yul\":12008:12089   */\n      tag_305\n        /* \"#utility.yul\":12085:12087   */\n      0x40\n        /* \"#utility.yul\":12074:12083   */\n      dup4\n        /* \"#utility.yul\":12070:12088   */\n      add\n        /* \"#utility.yul\":12061:12067   */\n      dup5\n        /* \"#utility.yul\":12008:12089   */\n      tag_148\n      jump\t// in\n    tag_305:\n        /* \"#utility.yul\":11636:12096   */\n      swap5\n      swap4\n      pop\n      pop\n      pop\n      pop\n      jump\t// out\n        /* \"#utility.yul\":12102:12239   */\n    tag_149:\n        /* \"#utility.yul\":12156:12161   */\n      0x00\n        /* \"#utility.yul\":12187:12193   */\n      dup2\n        /* \"#utility.yul\":12181:12194   */\n      mload\n        /* \"#utility.yul\":12172:12194   */\n      swap1\n      pop\n        /* \"#utility.yul\":12203:12233   */\n      tag_307\n        /* \"#utility.yul\":12227:12232   */\n      dup2\n        /* \"#utility.yul\":12203:12233   */\n      tag_122\n      jump\t// in\n    tag_307:\n        /* \"#utility.yul\":12102:12239   */\n      swap3\n      swap2\n      pop\n      pop\n      jump\t// out\n        /* \"#utility.yul\":12245:12590   */\n    tag_79:\n        /* \"#utility.yul\":12312:12318   */\n      0x00\n        /* \"#utility.yul\":12361:12363   */\n      0x20\n        /* \"#utility.yul\":12349:12358   */\n      dup3\n        /* \"#utility.yul\":12340:12347   */\n      dup5\n        /* \"#utility.yul\":12336:12359   */\n      sub\n        /* \"#utility.yul\":12332:12364   */\n      slt\n        /* \"#utility.yul\":12329:12448   */\n      iszero\n      tag_309\n      jumpi\n        /* \"#utility.yul\":12367:12446   */\n      tag_310\n      tag_109\n      jump\t// in\n    tag_310:\n        /* \"#utility.yul\":12329:12448   */\n    tag_309:\n        /* \"#utility.yul\":12487:12488   */\n      0x00\n        /* \"#utility.yul\":12512:12573   */\n      tag_311\n        /* \"#utility.yul\":12565:12572   */\n      dup5\n        /* \"#utility.yul\":12556:12562   */\n      dup3\n        /* \"#utility.yul\":12545:12554   */\n      dup6\n        /* \"#utility.yul\":12541:12563   */\n      add\n        /* \"#utility.yul\":12512:12573   */\n      tag_149\n      jump\t// in\n    tag_311:\n        /* \"#utility.yul\":12502:12573   */\n      swap2\n      pop\n        /* \"#utility.yul\":12458:12583   */\n      pop\n        /* \"#utility.yul\":12245:12590   */\n      swap3\n      swap2\n      pop\n      pop\n      jump\t// out\n        /* \"#utility.yul\":12596:12829   */\n    tag_82:\n        /* \"#utility.yul\":12635:12638   */\n      0x00\n        /* \"#utility.yul\":12658:12682   */\n      tag_313\n        /* \"#utility.yul\":12676:12681   */\n      dup3\n        /* \"#utility.yul\":12658:12682   */\n      tag_111\n      jump\t// in\n    tag_313:\n        /* \"#utility.yul\":12649:12682   */\n      swap2\n      pop\n        /* \"#utility.yul\":12704:12770   */\n      0xffffffffffffffffffffffffffffffffffffffffffffffffffffffffffffffff\n        /* \"#utility.yul\":12697:12702   */\n      dup3\n        /* \"#utility.yul\":12694:12771   */\n      sub\n        /* \"#utility.yul\":12691:12794   */\n      tag_314\n      jumpi\n        /* \"#utility.yul\":12774:12792   */\n      tag_315\n      tag_145\n      jump\t// in\n    tag_315:\n        /* \"#utility.yul\":12691:12794   */\n    tag_314:\n        /* \"#utility.yul\":12821:12822   */\n      0x01\n        /* \"#utility.yul\":12814:12819   */\n      dup3\n        /* \"#utility.yul\":12810:12823   */\n      add\n        /* \"#utility.yul\":12803:12823   */\n      swap1\n      pop\n        /* \"#utility.yul\":12596:12829   */\n      swap2\n      swap1\n      pop\n      jump\t// out\n        /* \"#utility.yul\":12835:12976   */\n    tag_150:\n        /* \"#utility.yul\":12884:12888   */\n      0x00\n        /* \"#utility.yul\":12907:12910   */\n      dup2\n        /* \"#utility.yul\":12899:12910   */\n      swap1\n      pop\n        /* \"#utility.yul\":12930:12933   */\n      dup2\n        /* \"#utility.yul\":12927:12928   */\n      0x00\n        /* \"#utility.yul\":12920:12934   */\n      mstore\n        /* \"#utility.yul\":12964:12968   */\n      0x20\n        /* \"#utility.yul\":12961:12962   */\n      0x00\n        /* \"#utility.yul\":12951:12969   */\n      keccak256\n        /* \"#utility.yul\":12943:12969   */\n      swap1\n      pop\n        /* \"#utility.yul\":12835:12976   */\n      swap2\n      swap1\n      pop\n      jump\t// out\n        /* \"#utility.yul\":12982:13075   */\n    tag_151:\n        /* \"#utility.yul\":13019:13025   */\n      0x00\n        /* \"#utility.yul\":13066:13068   */\n      0x20\n        /* \"#utility.yul\":13061:13063   */\n      0x1f\n        /* \"#utility.yul\":13054:13059   */\n      dup4\n        /* \"#utility.yul\":13050:13064   */\n      add\n        /* \"#utility.yul\":13046:13069   */\n      div\n        /* \"#utility.yul\":13036:13069   */\n      swap1\n      pop\n        /* \"#utility.yul\":12982:13075   */\n      swap2\n      swap1\n      pop\n      jump\t// out\n        /* \"#utility.yul\":13081:13188   */\n    tag_152:\n        /* \"#utility.yul\":13125:13133   */\n      0x00\n        /* \"#utility.yul\":13175:13180   */\n      dup3\n        /* \"#utility.yul\":13169:13173   */\n      dup3\n        /* \"#utility.yul\":13165:13181   */\n      shl\n        /* \"#utility.yul\":13144:13181   */\n      swap1\n      pop\n        /* \"#utility.yul\":13081:13188   */\n      swap3\n      swap2\n      pop\n      pop\n      jump\t// out\n        /* \"#utility.yul\":13194:13587   */\n    tag_153:\n        /* \"#utility.yul\":13263:13269   */\n      0x00\n        /* \"#utility.yul\":13313:13314   */\n      0x08\n        /* \"#utility.yul\":13301:13311   */\n      dup4\n        /* \"#utility.yul\":13297:13315   */\n      mul\n        /* \"#utility.yul\":13336:13433   */\n      tag_320\n        /* \"#utility.yul\":13366:13432   */\n      0xffffffffffffffffffffffffffffffffffffffffffffffffffffffffffffffff\n        /* \"#utility.yul\":13355:13364   */\n      dup3\n        /* \"#utility.yul\":13336:13433   */\n      tag_152\n      jump\t// in\n    tag_320:\n        /* \"#utility.yul\":13454:13493   */\n      tag_321\n        /* \"#utility.yul\":13484:13492   */\n      dup7\n        /* \"#utility.yul\":13473:13482   */\n      dup4\n        /* \"#utility.yul\":13454:13493   */\n      tag_152\n      jump\t// in\n    tag_321:\n        /* \"#utility.yul\":13442:13493   */\n      swap6\n      pop\n        /* \"#utility.yul\":13526:13530   */\n      dup1\n        /* \"#utility.yul\":13522:13531   */\n      not\n        /* \"#utility.yul\":13515:13520   */\n      dup5\n        /* \"#utility.yul\":13511:13532   */\n      and\n        /* \"#utility.yul\":13502:13532   */\n      swap4\n      pop\n        /* \"#utility.yul\":13575:13579   */\n      dup1\n        /* \"#utility.yul\":13565:13573   */\n      dup7\n        /* \"#utility.yul\":13561:13580   */\n      and\n        /* \"#utility.yul\":13554:13559   */\n      dup5\n        /* \"#utility.yul\":13551:13581   */\n      or\n        /* \"#utility.yul\":13541:13581   */\n      swap3\n      pop\n        /* \"#utility.yul\":13270:13587   */\n      pop\n      pop\n        /* \"#utility.yul\":13194:13587   */\n      swap4\n      swap3\n      pop\n      pop\n      pop\n      jump\t// out\n        /* \"#utility.yul\":13593:13735   */\n    tag_154:\n        /* \"#utility.yul\":13643:13652   */\n      0x00\n        /* \"#utility.yul\":13676:13729   */\n      tag_323\n        /* \"#utility.yul\":13694:13728   */\n      tag_324\n        /* \"#utility.yul\":13703:13727   */\n      tag_325\n        /* \"#utility.yul\":13721:13726   */\n      dup5\n        /* \"#utility.yul\":13703:13727   */\n      tag_111\n      jump\t// in\n    tag_325:\n        /* \"#utility.yul\":13694:13728   */\n      tag_134\n      jump\t// in\n    tag_324:\n        /* \"#utility.yul\":13676:13729   */\n      tag_111\n      jump\t// in\n    tag_323:\n        /* \"#utility.yul\":13663:13729   */\n      swap1\n      pop\n        /* \"#utility.yul\":13593:13735   */\n      swap2\n      swap1\n      pop\n      jump\t// out\n        /* \"#utility.yul\":13741:13816   */\n    tag_155:\n        /* \"#utility.yul\":13784:13787   */\n      0x00\n        /* \"#utility.yul\":13805:13810   */\n      dup2\n        /* \"#utility.yul\":13798:13810   */\n      swap1\n      pop\n        /* \"#utility.yul\":13741:13816   */\n      swap2\n      swap1\n      pop\n      jump\t// out\n        /* \"#utility.yul\":13822:14091   */\n    tag_156:\n        /* \"#utility.yul\":13932:13971   */\n      tag_328\n        /* \"#utility.yul\":13963:13970   */\n      dup4\n        /* \"#utility.yul\":13932:13971   */\n      tag_154\n      jump\t// in\n    tag_328:\n        /* \"#utility.yul\":13993:14084   */\n      tag_329\n        /* \"#utility.yul\":14042:14083   */\n      tag_330\n        /* \"#utility.yul\":14066:14082   */\n      dup3\n        /* \"#utility.yul\":14042:14083   */\n      tag_155\n      jump\t// in\n    tag_330:\n        /* \"#utility.yul\":14034:14040   */\n      dup5\n        /* \"#utility.yul\":14027:14031   */\n      dup5\n        /* \"#utility.yul\":14021:14032   */\n      sload\n        /* \"#utility.yul\":13993:14084   */\n      tag_153\n      jump\t// in\n    tag_329:\n        /* \"#utility.yul\":13987:13991   */\n      dup3\n        /* \"#utility.yul\":13980:14085   */\n      sstore\n        /* \"#utility.yul\":13898:14091   */\n      pop\n        /* \"#utility.yul\":13822:14091   */\n      pop\n      pop\n      pop\n      jump\t// out\n        /* \"#utility.yul\":14097:14170   */\n    tag_157:\n        /* \"#utility.yul\":14142:14145   */\n      0x00\n        /* \"#utility.yul\":14097:14170   */\n      swap1\n      jump\t// out\n        /* \"#utility.yul\":14176:14365   */\n    tag_158:\n        /* \"#utility.yul\":14253:14285   */\n      tag_333\n      tag_157\n      jump\t// in\n    tag_333:\n        /* \"#utility.yul\":14294:14359   */\n      tag_334\n        /* \"#utility.yul\":14352:14358   */\n      dup2\n        /* \"#utility.yul\":14344:14350   */\n      dup5\n        /* \"#utility.yul\":14338:14342   */\n      dup5\n        /* \"#utility.yul\":14294:14359   */\n      tag_156\n      jump\t// in\n    tag_334:\n        /* \"#utility.yul\":14229:14365   */\n      pop\n        /* \"#utility.yul\":14176:14365   */\n      pop\n      pop\n      jump\t// out\n        /* \"#utility.yul\":14371:14557   */\n    tag_159:\n        /* \"#utility.yul\":14431:14551   */\n    tag_336:\n        /* \"#utility.yul\":14448:14451   */\n      dup2\n        /* \"#utility.yul\":14441:14446   */\n      dup2\n        /* \"#utility.yul\":14438:14452   */\n      lt\n        /* \"#utility.yul\":14431:14551   */\n      iszero\n      tag_338\n      jumpi\n        /* \"#utility.yul\":14502:14541   */\n      tag_339\n        /* \"#utility.yul\":14539:14540   */\n      0x00\n        /* \"#utility.yul\":14532:14537   */\n      dup3\n        /* \"#utility.yul\":14502:14541   */\n      tag_158\n      jump\t// in\n    tag_339:\n        /* \"#utility.yul\":14475:14476   */\n      0x01\n        /* \"#utility.yul\":14468:14473   */\n      dup2\n        /* \"#utility.yul\":14464:14477   */\n      add\n        /* \"#utility.yul\":14455:14477   */\n      swap1\n      pop\n        /* \"#utility.yul\":14431:14551   */\n      jump(tag_336)\n    tag_338:\n        /* \"#utility.yul\":14371:14557   */\n      pop\n      pop\n      jump\t// out\n        /* \"#utility.yul\":14563:15106   */\n    tag_160:\n        /* \"#utility.yul\":14664:14666   */\n      0x1f\n        /* \"#utility.yul\":14659:14662   */\n      dup3\n        /* \"#utility.yul\":14656:14667   */\n      gt\n        /* \"#utility.yul\":14653:15099   */\n      iszero\n      tag_341\n      jumpi\n        /* \"#utility.yul\":14698:14736   */\n      tag_342\n        /* \"#utility.yul\":14730:14735   */\n      dup2\n        /* \"#utility.yul\":14698:14736   */\n      tag_150\n      jump\t// in\n    tag_342:\n        /* \"#utility.yul\":14782:14811   */\n      tag_343\n        /* \"#utility.yul\":14800:14810   */\n      dup5\n        /* \"#utility.yul\":14782:14811   */\n      tag_151\n      jump\t// in\n    tag_343:\n        /* \"#utility.yul\":14772:14780   */\n      dup2\n        /* \"#utility.yul\":14768:14812   */\n      add\n        /* \"#utility.yul\":14965:14967   */\n      0x20\n        /* \"#utility.yul\":14953:14963   */\n      dup6\n        /* \"#utility.yul\":14950:14968   */\n      lt\n        /* \"#utility.yul\":14947:14996   */\n      iszero\n      tag_344\n      jumpi\n        /* \"#utility.yul\":14986:14994   */\n      dup2\n        /* \"#utility.yul\":14971:14994   */\n      swap1\n      pop\n        /* \"#utility.yul\":14947:14996   */\n    tag_344:\n        /* \"#utility.yul\":15009:15089   */\n      tag_345\n        /* \"#utility.yul\":15065:15087   */\n      tag_346\n        /* \"#utility.yul\":15083:15086   */\n      dup6\n        /* \"#utility.yul\":15065:15087   */\n      tag_151\n      jump\t// in\n    tag_346:\n        /* \"#utility.yul\":15055:15063   */\n      dup4\n        /* \"#utility.yul\":15051:15088   */\n      add\n        /* \"#utility.yul\":15038:15049   */\n      dup3\n        /* \"#utility.yul\":15009:15089   */\n      tag_159\n      jump\t// in\n    tag_345:\n        /* \"#utility.yul\":14668:15099   */\n      pop\n      pop\n        /* \"#utility.yul\":14653:15099   */\n    tag_341:\n        /* \"#utility.yul\":14563:15106   */\n      pop\n      pop\n      pop\n      jump\t// out\n        /* \"#utility.yul\":15112:15229   */\n    tag_161:\n        /* \"#utility.yul\":15166:15174   */\n      0x00\n        /* \"#utility.yul\":15216:15221   */\n      dup3\n        /* \"#utility.yul\":15210:15214   */\n      dup3\n        /* \"#utility.yul\":15206:15222   */\n      shr\n        /* \"#utility.yul\":15185:15222   */\n      swap1\n      pop\n        /* \"#utility.yul\":15112:15229   */\n      swap3\n      swap2\n      pop\n      pop\n      jump\t// out\n        /* \"#utility.yul\":15235:15404   */\n    tag_162:\n        /* \"#utility.yul\":15279:15285   */\n      0x00\n        /* \"#utility.yul\":15312:15363   */\n      tag_349\n        /* \"#utility.yul\":15360:15361   */\n      0x00\n        /* \"#utility.yul\":15356:15362   */\n      not\n        /* \"#utility.yul\":15348:15353   */\n      dup5\n        /* \"#utility.yul\":15345:15346   */\n      0x08\n        /* \"#utility.yul\":15341:15354   */\n      mul\n        /* \"#utility.yul\":15312:15363   */\n      tag_161\n      jump\t// in\n    tag_349:\n        /* \"#utility.yul\":15308:15364   */\n      not\n        /* \"#utility.yul\":15393:15397   */\n      dup1\n        /* \"#utility.yul\":15387:15391   */\n      dup4\n        /* \"#utility.yul\":15383:15398   */\n      and\n        /* \"#utility.yul\":15373:15398   */\n      swap2\n      pop\n        /* \"#utility.yul\":15286:15404   */\n      pop\n        /* \"#utility.yul\":15235:15404   */\n      swap3\n      swap2\n      pop\n      pop\n      jump\t// out\n        /* \"#utility.yul\":15409:15704   */\n    tag_163:\n        /* \"#utility.yul\":15485:15489   */\n      0x00\n        /* \"#utility.yul\":15631:15660   */\n      tag_351\n        /* \"#utility.yul\":15656:15659   */\n      dup4\n        /* \"#utility.yul\":15650:15654   */\n      dup4\n        /* \"#utility.yul\":15631:15660   */\n      tag_162\n      jump\t// in\n    tag_351:\n        /* \"#utility.yul\":15623:15660   */\n      swap2\n      pop\n        /* \"#utility.yul\":15693:15696   */\n      dup3\n        /* \"#utility.yul\":15690:15691   */\n      0x02\n        /* \"#utility.yul\":15686:15697   */\n      mul\n        /* \"#utility.yul\":15680:15684   */\n      dup3\n        /* \"#utility.yul\":15677:15698   */\n      or\n        /* \"#utility.yul\":15669:15698   */\n      swap1\n      pop\n        /* \"#utility.yul\":15409:15704   */\n      swap3\n      swap2\n      pop\n      pop\n      jump\t// out\n        /* \"#utility.yul\":15709:17104   */\n    tag_85:\n        /* \"#utility.yul\":15826:15863   */\n      tag_353\n        /* \"#utility.yul\":15859:15862   */\n      dup3\n        /* \"#utility.yul\":15826:15863   */\n      tag_114\n      jump\t// in\n    tag_353:\n        /* \"#utility.yul\":15928:15946   */\n      0xffffffffffffffff\n        /* \"#utility.yul\":15920:15926   */\n      dup2\n        /* \"#utility.yul\":15917:15947   */\n      gt\n        /* \"#utility.yul\":15914:15970   */\n      iszero\n      tag_354\n      jumpi\n        /* \"#utility.yul\":15950:15968   */\n      tag_355\n      tag_126\n      jump\t// in\n    tag_355:\n        /* \"#utility.yul\":15914:15970   */\n    tag_354:\n        /* \"#utility.yul\":15994:16032   */\n      tag_356\n        /* \"#utility.yul\":16026:16030   */\n      dup3\n        /* \"#utility.yul\":16020:16031   */\n      sload\n        /* \"#utility.yul\":15994:16032   */\n      tag_44\n      jump\t// in\n    tag_356:\n        /* \"#utility.yul\":16079:16146   */\n      tag_357\n        /* \"#utility.yul\":16139:16145   */\n      dup3\n        /* \"#utility.yul\":16131:16137   */\n      dup3\n        /* \"#utility.yul\":16125:16129   */\n      dup6\n        /* \"#utility.yul\":16079:16146   */\n      tag_160\n      jump\t// in\n    tag_357:\n        /* \"#utility.yul\":16173:16174   */\n      0x00\n        /* \"#utility.yul\":16197:16201   */\n      0x20\n        /* \"#utility.yul\":16184:16201   */\n      swap1\n      pop\n        /* \"#utility.yul\":16229:16231   */\n      0x1f\n        /* \"#utility.yul\":16221:16227   */\n      dup4\n        /* \"#utility.yul\":16218:16232   */\n      gt\n        /* \"#utility.yul\":16246:16247   */\n      0x01\n        /* \"#utility.yul\":16241:16859   */\n      dup2\n      eq\n      tag_359\n      jumpi\n        /* \"#utility.yul\":16903:16904   */\n      0x00\n        /* \"#utility.yul\":16920:16926   */\n      dup5\n        /* \"#utility.yul\":16917:16994   */\n      iszero\n      tag_360\n      jumpi\n        /* \"#utility.yul\":16969:16978   */\n      dup3\n        /* \"#utility.yul\":16964:16967   */\n      dup8\n        /* \"#utility.yul\":16960:16979   */\n      add\n        /* \"#utility.yul\":16954:16980   */\n      mload\n        /* \"#utility.yul\":16945:16980   */\n      swap1\n      pop\n        /* \"#utility.yul\":16917:16994   */\n    tag_360:\n        /* \"#utility.yul\":17020:17087   */\n      tag_361\n        /* \"#utility.yul\":17080:17086   */\n      dup6\n        /* \"#utility.yul\":17073:17078   */\n      dup3\n        /* \"#utility.yul\":17020:17087   */\n      tag_163\n      jump\t// in\n    tag_361:\n        /* \"#utility.yul\":17014:17018   */\n      dup7\n        /* \"#utility.yul\":17007:17088   */\n      sstore\n        /* \"#utility.yul\":16876:17098   */\n      pop\n        /* \"#utility.yul\":16211:17098   */\n      jump(tag_358)\n        /* \"#utility.yul\":16241:16859   */\n    tag_359:\n        /* \"#utility.yul\":16293:16297   */\n      0x1f\n        /* \"#utility.yul\":16289:16298   */\n      not\n        /* \"#utility.yul\":16281:16287   */\n      dup5\n        /* \"#utility.yul\":16277:16299   */\n      and\n        /* \"#utility.yul\":16327:16364   */\n      tag_362\n        /* \"#utility.yul\":16359:16363   */\n      dup7\n        /* \"#utility.yul\":16327:16364   */\n      tag_150\n      jump\t// in\n    tag_362:\n        /* \"#utility.yul\":16386:16387   */\n      0x00\n        /* \"#utility.yul\":16400:16608   */\n    tag_363:\n        /* \"#utility.yul\":16414:16421   */\n      dup3\n        /* \"#utility.yul\":16411:16412   */\n      dup2\n        /* \"#utility.yul\":16408:16422   */\n      lt\n        /* \"#utility.yul\":16400:16608   */\n      iszero\n      tag_365\n      jumpi\n        /* \"#utility.yul\":16493:16502   */\n      dup5\n        /* \"#utility.yul\":16488:16491   */\n      dup10\n        /* \"#utility.yul\":16484:16503   */\n      add\n        /* \"#utility.yul\":16478:16504   */\n      mload\n        /* \"#utility.yul\":16470:16476   */\n      dup3\n        /* \"#utility.yul\":16463:16505   */\n      sstore\n        /* \"#utility.yul\":16544:16545   */\n      0x01\n        /* \"#utility.yul\":16536:16542   */\n      dup3\n        /* \"#utility.yul\":16532:16546   */\n      add\n        /* \"#utility.yul\":16522:16546   */\n      swap2\n      pop\n        /* \"#utility.yul\":16591:16593   */\n      0x20\n        /* \"#utility.yul\":16580:16589   */\n      dup6\n        /* \"#utility.yul\":16576:16594   */\n      add\n        /* \"#utility.yul\":16563:16594   */\n      swap5\n      pop\n        /* \"#utility.yul\":16437:16441   */\n      0x20\n        /* \"#utility.yul\":16434:16435   */\n      dup2\n        /* \"#utility.yul\":16430:16442   */\n      add\n        /* \"#utility.yul\":16425:16442   */\n      swap1\n      pop\n        /* \"#utility.yul\":16400:16608   */\n      jump(tag_363)\n    tag_365:\n        /* \"#utility.yul\":16636:16642   */\n      dup7\n        /* \"#utility.yul\":16627:16634   */\n      dup4\n        /* \"#utility.yul\":16624:16643   */\n      lt\n        /* \"#utility.yul\":16621:16800   */\n      iszero\n      tag_366\n      jumpi\n        /* \"#utility.yul\":16694:16703   */\n      dup5\n        /* \"#utility.yul\":16689:16692   */\n      dup10\n        /* \"#utility.yul\":16685:16704   */\n      add\n        /* \"#utility.yul\":16679:16705   */\n      mload\n        /* \"#utility.yul\":16737:16785   */\n      tag_367\n        /* \"#utility.yul\":16779:16783   */\n      0x1f\n        /* \"#utility.yul\":16771:16777   */\n      dup10\n        /* \"#utility.yul\":16767:16784   */\n      and\n        /* \"#utility.yul\":16756:16765   */\n      dup3\n        /* \"#utility.yul\":16737:16785   */\n      tag_162\n      jump\t// in\n    tag_367:\n        /* \"#utility.yul\":16729:16735   */\n      dup4\n        /* \"#utility.yul\":16722:16786   */\n      sstore\n        /* \"#utility.yul\":16644:16800   */\n      pop\n        /* \"#utility.yul\":16621:16800   */\n    tag_366:\n        /* \"#utility.yul\":16846:16847   */\n      0x01\n        /* \"#utility.yul\":16842:16843   */\n      0x02\n        /* \"#utility.yul\":16834:16840   */\n      dup9\n        /* \"#utility.yul\":16830:16844   */\n      mul\n        /* \"#utility.yul\":16826:16848   */\n      add\n        /* \"#utility.yul\":16820:16824   */\n      dup9\n        /* \"#utility.yul\":16813:16849   */\n      sstore\n        /* \"#utility.yul\":16248:16859   */\n      pop\n      pop\n      pop\n        /* \"#utility.yul\":16211:17098   */\n    tag_358:\n      pop\n        /* \"#utility.yul\":15801:17104   */\n      pop\n      pop\n      pop\n        /* \"#utility.yul\":15709:17104   */\n      pop\n      pop\n      jump\t// out\n        /* \"#utility.yul\":17110:17269   */\n    tag_164:\n        /* \"#utility.yul\":17250:17261   */\n      0x4e6f7420656e6465640000000000000000000000000000000000000000000000\n        /* \"#utility.yul\":17246:17247   */\n      0x00\n        /* \"#utility.yul\":17238:17244   */\n      dup3\n        /* \"#utility.yul\":17234:17248   */\n      add\n        /* \"#utility.yul\":17227:17262   */\n      mstore\n        /* \"#utility.yul\":17110:17269   */\n      pop\n      jump\t// out\n        /* \"#utility.yul\":17275:17640   */\n    tag_165:\n        /* \"#utility.yul\":17417:17420   */\n      0x00\n        /* \"#utility.yul\":17438:17504   */\n      tag_370\n        /* \"#utility.yul\":17502:17503   */\n      0x09\n        /* \"#utility.yul\":17497:17500   */\n      dup4\n        /* \"#utility.yul\":17438:17504   */\n      tag_115\n      jump\t// in\n    tag_370:\n        /* \"#utility.yul\":17431:17504   */\n      swap2\n      pop\n        /* \"#utility.yul\":17513:17606   */\n      tag_371\n        /* \"#utility.yul\":17602:17605   */\n      dup3\n        /* \"#utility.yul\":17513:17606   */\n      tag_164\n      jump\t// in\n    tag_371:\n        /* \"#utility.yul\":17631:17633   */\n      0x20\n        /* \"#utility.yul\":17626:17629   */\n      dup3\n        /* \"#utility.yul\":17622:17634   */\n      add\n        /* \"#utility.yul\":17615:17634   */\n      swap1\n      pop\n        /* \"#utility.yul\":17275:17640   */\n      swap2\n      swap1\n      pop\n      jump\t// out\n        /* \"#utility.yul\":17646:18065   */\n    tag_93:\n        /* \"#utility.yul\":17812:17816   */\n      0x00\n        /* \"#utility.yul\":17850:17852   */\n      0x20\n        /* \"#utility.yul\":17839:17848   */\n      dup3\n        /* \"#utility.yul\":17835:17853   */\n      add\n        /* \"#utility.yul\":17827:17853   */\n      swap1\n      pop\n        /* \"#utility.yul\":17899:17908   */\n      dup2\n        /* \"#utility.yul\":17893:17897   */\n      dup2\n        /* \"#utility.yul\":17889:17909   */\n      sub\n        /* \"#utility.yul\":17885:17886   */\n      0x00\n        /* \"#utility.yul\":17874:17883   */\n      dup4\n        /* \"#utility.yul\":17870:17887   */\n      add\n        /* \"#utility.yul\":17863:17910   */\n      mstore\n        /* \"#utility.yul\":17927:18058   */\n      tag_373\n        /* \"#utility.yul\":18053:18057   */\n      dup2\n        /* \"#utility.yul\":17927:18058   */\n      tag_165\n      jump\t// in\n    tag_373:\n        /* \"#utility.yul\":17919:18058   */\n      swap1\n      pop\n        /* \"#utility.yul\":17646:18065   */\n      swap2\n      swap1\n      pop\n      jump\t// out\n        /* \"#utility.yul\":18071:18251   */\n    tag_166:\n        /* \"#utility.yul\":18119:18196   */\n      0x4e487b7100000000000000000000000000000000000000000000000000000000\n        /* \"#utility.yul\":18116:18117   */\n      0x00\n        /* \"#utility.yul\":18109:18197   */\n      mstore\n        /* \"#utility.yul\":18216:18220   */\n      0x12\n        /* \"#utility.yul\":18213:18214   */\n      0x04\n        /* \"#utility.yul\":18206:18221   */\n      mstore\n        /* \"#utility.yul\":18240:18244   */\n      0x24\n        /* \"#utility.yul\":18237:18238   */\n      0x00\n        /* \"#utility.yul\":18230:18245   */\n      revert\n        /* \"#utility.yul\":18257:18442   */\n    tag_101:\n        /* \"#utility.yul\":18297:18298   */\n      0x00\n        /* \"#utility.yul\":18314:18334   */\n      tag_376\n        /* \"#utility.yul\":18332:18333   */\n      dup3\n        /* \"#utility.yul\":18314:18334   */\n      tag_111\n      jump\t// in\n    tag_376:\n        /* \"#utility.yul\":18309:18334   */\n      swap2\n      pop\n        /* \"#utility.yul\":18348:18368   */\n      tag_377\n        /* \"#utility.yul\":18366:18367   */\n      dup4\n        /* \"#utility.yul\":18348:18368   */\n      tag_111\n      jump\t// in\n    tag_377:\n        /* \"#utility.yul\":18343:18368   */\n      swap3\n      pop\n        /* \"#utility.yul\":18387:18388   */\n      dup3\n        /* \"#utility.yul\":18377:18412   */\n      tag_378\n      jumpi\n        /* \"#utility.yul\":18392:18410   */\n      tag_379\n      tag_166\n      jump\t// in\n    tag_379:\n        /* \"#utility.yul\":18377:18412   */\n    tag_378:\n        /* \"#utility.yul\":18434:18435   */\n      dup3\n        /* \"#utility.yul\":18431:18432   */\n      dup3\n        /* \"#utility.yul\":18427:18436   */\n      div\n        /* \"#utility.yul\":18422:18436   */\n      swap1\n      pop\n        /* \"#utility.yul\":18257:18442   */\n      swap3\n      swap2\n      pop\n      pop\n      jump\t// out\n        /* \"#utility.yul\":18448:18858   */\n    tag_103:\n        /* \"#utility.yul\":18488:18495   */\n      0x00\n        /* \"#utility.yul\":18511:18531   */\n      tag_381\n        /* \"#utility.yul\":18529:18530   */\n      dup3\n        /* \"#utility.yul\":18511:18531   */\n      tag_111\n      jump\t// in\n    tag_381:\n        /* \"#utility.yul\":18506:18531   */\n      swap2\n      pop\n        /* \"#utility.yul\":18545:18565   */\n      tag_382\n        /* \"#utility.yul\":18563:18564   */\n      dup4\n        /* \"#utility.yul\":18545:18565   */\n      tag_111\n      jump\t// in\n    tag_382:\n        /* \"#utility.yul\":18540:18565   */\n      swap3\n      pop\n        /* \"#utility.yul\":18600:18601   */\n      dup3\n        /* \"#utility.yul\":18597:18598   */\n      dup3\n        /* \"#utility.yul\":18593:18602   */\n      mul\n        /* \"#utility.yul\":18622:18652   */\n      tag_383\n        /* \"#utility.yul\":18640:18651   */\n      dup2\n        /* \"#utility.yul\":18622:18652   */\n      tag_111\n      jump\t// in\n    tag_383:\n        /* \"#utility.yul\":18611:18652   */\n      swap2\n      pop\n        /* \"#utility.yul\":18801:18802   */\n      dup3\n        /* \"#utility.yul\":18792:18799   */\n      dup3\n        /* \"#utility.yul\":18788:18803   */\n      div\n        /* \"#utility.yul\":18785:18786   */\n      dup5\n        /* \"#utility.yul\":18782:18804   */\n      eq\n        /* \"#utility.yul\":18762:18763   */\n      dup4\n        /* \"#utility.yul\":18755:18764   */\n      iszero\n        /* \"#utility.yul\":18735:18818   */\n      or\n        /* \"#utility.yul\":18712:18851   */\n      tag_384\n      jumpi\n        /* \"#utility.yul\":18831:18849   */\n      tag_385\n      tag_145\n      jump\t// in\n    tag_385:\n        /* \"#utility.yul\":18712:18851   */\n    tag_384:\n        /* \"#utility.yul\":18496:18858   */\n      pop\n        /* \"#utility.yul\":18448:18858   */\n      swap3\n      swap2\n      pop\n      pop\n      jump\t// out\n        /* \"#utility.yul\":18864:19184   */\n    tag_107:\n        /* \"#utility.yul\":18979:18983   */\n      0x00\n        /* \"#utility.yul\":19017:19019   */\n      0x40\n        /* \"#utility.yul\":19006:19015   */\n      dup3\n        /* \"#utility.yul\":19002:19020   */\n      add\n        /* \"#utility.yul\":18994:19020   */\n      swap1\n      pop\n        /* \"#utility.yul\":19030:19101   */\n      tag_387\n        /* \"#utility.yul\":19098:19099   */\n      0x00\n        /* \"#utility.yul\":19087:19096   */\n      dup4\n        /* \"#utility.yul\":19083:19100   */\n      add\n        /* \"#utility.yul\":19074:19080   */\n      dup6\n        /* \"#utility.yul\":19030:19101   */\n      tag_119\n      jump\t// in\n    tag_387:\n        /* \"#utility.yul\":19111:19177   */\n      tag_388\n        /* \"#utility.yul\":19173:19175   */\n      0x20\n        /* \"#utility.yul\":19162:19171   */\n      dup4\n        /* \"#utility.yul\":19158:19176   */\n      add\n        /* \"#utility.yul\":19149:19155   */\n      dup5\n        /* \"#utility.yul\":19111:19177   */\n      tag_121\n      jump\t// in\n    tag_388:\n        /* \"#utility.yul\":18864:19184   */\n      swap4\n      swap3\n      pop\n      pop\n      pop\n      jump\t// out\n\n    auxdata: 0xa2646970667358221220c2e5d890bb479ed43710e0cec73d0de8dede2d9ee4603e9232032900ee0d65df64736f6c63430008120033\n}\n",
				"bytecode": {
					"linkReferences": {},
					"object": "60806040523480156200001157600080fd5b50604051620014d8380380620014d88339818101604052810190620000379190620000f0565b6000600281905550806000806101000a81548173ffffffffffffffffffffffffffffffffffffffff021916908373ffffffffffffffffffffffffffffffffffffffff1602179055505062000122565b600080fd5b600073ffffffffffffffffffffffffffffffffffffffff82169050919050565b6000620000b8826200008b565b9050919050565b620000ca81620000ab565b8114620000d657600080fd5b50565b600081519050620000ea81620000bf565b92915050565b60006020828403121562000109576200010862000086565b5b60006200011984828501620000d9565b91505092915050565b6113a680620001326000396000f3fe608060405234801561001057600080fd5b506004361061007d5760003560e01c806349c2a1a61161005b57806349c2a1a6146101015780635652077c1461011d578063b034012314610139578063da35c664146101575761007d565b8063013cf08b14610082578063109fd3cb146100b557806315373e3d146100e5575b600080fd5b61009c600480360381019061009791906108d7565b610175565b6040516100ac94939291906109a3565b60405180910390f35b6100cf60048036038101906100ca91906108d7565b61023d565b6040516100dc9190610a0a565b60405180910390f35b6100ff60048036038101906100fa9190610a51565b61025d565b005b61011b60048036038101906101169190610bc6565b6104cd565b005b610137600480360381019061013291906108d7565b610659565b005b610141610863565b60405161014e9190610c8e565b60405180910390f35b61015f610887565b60405161016c9190610ca9565b60405180910390f35b6001818154811061018557600080fd5b90600052602060002090600402016000915090508060000180546101a890610cf3565b80601f01602080910402602001604051908101604052809291908181526020018280546101d490610cf3565b80156102215780601f106101f657610100808354040283529160200191610221565b820191906000526020600020905b81548152906001019060200180831161020457829003601f168201915b5050505050908060010154908060020154908060030154905084565b60046020528060005260406000206000915054906101000a900460ff1681565b60001515600360003373ffffffffffffffffffffffffffffffffffffffff1673ffffffffffffffffffffffffffffffffffffffff168152602001908152602001600020600084815260200190815260200160002060009054906101000a900460ff16151514610301576040517f08c379a00000000000000000000000000000000000000000000000000000000081526004016102f890610d70565b60405180910390fd5b60008060009054906101000a900473ffffffffffffffffffffffffffffffffffffffff1673ffffffffffffffffffffffffffffffffffffffff166370a08231336040518263ffffffff1660e01b815260040161035d9190610db1565b6020604051808303816000875af115801561037c573d6000803e3d6000fd5b505050506040513d601f19601f820116820180604052508101906103a09190610de1565b905081156103e95780600184815481106103bd576103bc610e0e565b5b906000526020600020906004020160010160008282546103dd9190610e6c565b92505081905550610426565b80600184815481106103fe576103fd610e0e565b5b9060005260206000209060040201600201600082825461041e9190610e6c565b925050819055505b6001600360003373ffffffffffffffffffffffffffffffffffffffff1673ffffffffffffffffffffffffffffffffffffffff168152602001908152602001600020600085815260200190815260200160002060006101000a81548160ff0219169083151502179055507f6dfaf9f72a4f8d7ca175050b9ebbe67c0fa6e9792fafb145f9e4224a6b49aa9533846040516104c0929190610ea0565b60405180910390a1505050565b60008054906101000a900473ffffffffffffffffffffffffffffffffffffffff1673ffffffffffffffffffffffffffffffffffffffff166323b872dd333060146040518463ffffffff1660e01b815260040161052b93929190610f04565b6020604051808303816000875af115801561054a573d6000803e3d6000fd5b505050506040513d601f19601f8201168201806040525081019061056e9190610f50565b506000604051806080016040528083815260200160008152602001600081526020016203f4804261059f9190610e6c565b81525090506002600081546105b390610f7d565b91905081905550600181908060018154018082558091505060019003906000526020600020906004020160009091909190915060008201518160000190816105fb9190611167565b5060208201518160010155604082015181600201556060820151816003015550507fcd60ce1b3bfcaf4be4681239b37e4c30fcb95e4b6d3da5b1679aed03ad47fed060025460405161064d9190610ca9565b60405180910390a15050565b6001818154811061066d5761066c610e0e565b5b9060005260206000209060040201600301544210156106c1576040517f08c379a00000000000000000000000000000000000000000000000000000000081526004016106b890611285565b60405180910390fd5b6000600182815481106106d7576106d6610e0e565b5b906000526020600020906004020160010154905060008060009054906101000a900473ffffffffffffffffffffffffffffffffffffffff1673ffffffffffffffffffffffffffffffffffffffff166318160ddd6040518163ffffffff1660e01b81526004016020604051808303816000875af115801561075b573d6000803e3d6000fd5b505050506040513d601f19601f8201168201806040525081019061077f9190610de1565b905060006064828461079191906112d4565b61079b9190611305565b905060328111156107d75760016004600086815260200190815260200160002060006101000a81548160ff021916908315150217905550610804565b60006004600086815260200190815260200160002060006101000a81548160ff0219169083151502179055505b7f2dae7d7f9bf4be3977892be3940f6d40bcdfb213d5cc1d55f247cb816b1bdc21846004600087815260200190815260200160002060009054906101000a900460ff16604051610855929190611347565b60405180910390a150505050565b60008054906101000a900473ffffffffffffffffffffffffffffffffffffffff1681565b60025481565b6000604051905090565b600080fd5b600080fd5b6000819050919050565b6108b4816108a1565b81146108bf57600080fd5b50565b6000813590506108d1816108ab565b92915050565b6000602082840312156108ed576108ec610897565b5b60006108fb848285016108c2565b91505092915050565b600081519050919050565b600082825260208201905092915050565b60005b8381101561093e578082015181840152602081019050610923565b60008484015250505050565b6000601f19601f8301169050919050565b600061096682610904565b610970818561090f565b9350610980818560208601610920565b6109898161094a565b840191505092915050565b61099d816108a1565b82525050565b600060808201905081810360008301526109bd818761095b565b90506109cc6020830186610994565b6109d96040830185610994565b6109e66060830184610994565b95945050505050565b60008115159050919050565b610a04816109ef565b82525050565b6000602082019050610a1f60008301846109fb565b92915050565b610a2e816109ef565b8114610a3957600080fd5b50565b600081359050610a4b81610a25565b92915050565b60008060408385031215610a6857610a67610897565b5b6000610a76858286016108c2565b9250506020610a8785828601610a3c565b9150509250929050565b600080fd5b600080fd5b7f4e487b7100000000000000000000000000000000000000000000000000000000600052604160045260246000fd5b610ad38261094a565b810181811067ffffffffffffffff82111715610af257610af1610a9b565b5b80604052505050565b6000610b0561088d565b9050610b118282610aca565b919050565b600067ffffffffffffffff821115610b3157610b30610a9b565b5b610b3a8261094a565b9050602081019050919050565b82818337600083830152505050565b6000610b69610b6484610b16565b610afb565b905082815260208101848484011115610b8557610b84610a96565b5b610b90848285610b47565b509392505050565b600082601f830112610bad57610bac610a91565b5b8135610bbd848260208601610b56565b91505092915050565b600060208284031215610bdc57610bdb610897565b5b600082013567ffffffffffffffff811115610bfa57610bf961089c565b5b610c0684828501610b98565b91505092915050565b600073ffffffffffffffffffffffffffffffffffffffff82169050919050565b6000819050919050565b6000610c54610c4f610c4a84610c0f565b610c2f565b610c0f565b9050919050565b6000610c6682610c39565b9050919050565b6000610c7882610c5b565b9050919050565b610c8881610c6d565b82525050565b6000602082019050610ca36000830184610c7f565b92915050565b6000602082019050610cbe6000830184610994565b92915050565b7f4e487b7100000000000000000000000000000000000000000000000000000000600052602260045260246000fd5b60006002820490506001821680610d0b57607f821691505b602082108103610d1e57610d1d610cc4565b5b50919050565b7f416c726561647920766f74656400000000000000000000000000000000000000600082015250565b6000610d5a600d8361090f565b9150610d6582610d24565b602082019050919050565b60006020820190508181036000830152610d8981610d4d565b9050919050565b6000610d9b82610c0f565b9050919050565b610dab81610d90565b82525050565b6000602082019050610dc66000830184610da2565b92915050565b600081519050610ddb816108ab565b92915050565b600060208284031215610df757610df6610897565b5b6000610e0584828501610dcc565b91505092915050565b7f4e487b7100000000000000000000000000000000000000000000000000000000600052603260045260246000fd5b7f4e487b7100000000000000000000000000000000000000000000000000000000600052601160045260246000fd5b6000610e77826108a1565b9150610e82836108a1565b9250828201905080821115610e9a57610e99610e3d565b5b92915050565b6000604082019050610eb56000830185610da2565b610ec26020830184610994565b9392505050565b6000819050919050565b6000610eee610ee9610ee484610ec9565b610c2f565b6108a1565b9050919050565b610efe81610ed3565b82525050565b6000606082019050610f196000830186610da2565b610f266020830185610da2565b610f336040830184610ef5565b949350505050565b600081519050610f4a81610a25565b92915050565b600060208284031215610f6657610f65610897565b5b6000610f7484828501610f3b565b91505092915050565b6000610f88826108a1565b91507fffffffffffffffffffffffffffffffffffffffffffffffffffffffffffffffff8203610fba57610fb9610e3d565b5b600182019050919050565b60008190508160005260206000209050919050565b60006020601f8301049050919050565b600082821b905092915050565b6000600883026110277fffffffffffffffffffffffffffffffffffffffffffffffffffffffffffffffff82610fea565b6110318683610fea565b95508019841693508086168417925050509392505050565b600061106461105f61105a846108a1565b610c2f565b6108a1565b9050919050565b6000819050919050565b61107e83611049565b61109261108a8261106b565b848454610ff7565b825550505050565b600090565b6110a761109a565b6110b2818484611075565b505050565b5b818110156110d6576110cb60008261109f565b6001810190506110b8565b5050565b601f82111561111b576110ec81610fc5565b6110f584610fda565b81016020851015611104578190505b61111861111085610fda565b8301826110b7565b50505b505050565b600082821c905092915050565b600061113e60001984600802611120565b1980831691505092915050565b6000611157838361112d565b9150826002028217905092915050565b61117082610904565b67ffffffffffffffff81111561118957611188610a9b565b5b6111938254610cf3565b61119e8282856110da565b600060209050601f8311600181146111d157600084156111bf578287015190505b6111c9858261114b565b865550611231565b601f1984166111df86610fc5565b60005b82811015611207578489015182556001820191506020850194506020810190506111e2565b868310156112245784890151611220601f89168261112d565b8355505b6001600288020188555050505b505050505050565b7f4e6f7420656e6465640000000000000000000000000000000000000000000000600082015250565b600061126f60098361090f565b915061127a82611239565b602082019050919050565b6000602082019050818103600083015261129e81611262565b9050919050565b7f4e487b7100000000000000000000000000000000000000000000000000000000600052601260045260246000fd5b60006112df826108a1565b91506112ea836108a1565b9250826112fa576112f96112a5565b5b828204905092915050565b6000611310826108a1565b915061131b836108a1565b9250828202611329816108a1565b915082820484148315176113405761133f610e3d565b5b5092915050565b600060408201905061135c6000830185610994565b61136960208301846109fb565b939250505056fea2646970667358221220c2e5d890bb479ed43710e0cec73d0de8dede2d9ee4603e9232032900ee0d65df64736f6c63430008120033",
					"opcodes": "PUSH1 0x80 PUSH1 0x40 MSTORE CALLVALUE DUP1 ISZERO PUSH3 0x11 JUMPI PUSH1 0x0 DUP1 REVERT JUMPDEST POP PUSH1 0x40 MLOAD PUSH3 0x14D8 CODESIZE SUB DUP1 PUSH3 0x14D8 DUP4 CODECOPY DUP2 DUP2 ADD PUSH1 0x40 MSTORE DUP2 ADD SWAP1 PUSH3 0x37 SWAP2 SWAP1 PUSH3 0xF0 JUMP JUMPDEST PUSH1 0x0 PUSH1 0x2 DUP2 SWAP1 SSTORE POP DUP1 PUSH1 0x0 DUP1 PUSH2 0x100 EXP DUP2 SLOAD DUP2 PUSH20 0xFFFFFFFFFFFFFFFFFFFFFFFFFFFFFFFFFFFFFFFF MUL NOT AND SWAP1 DUP4 PUSH20 0xFFFFFFFFFFFFFFFFFFFFFFFFFFFFFFFFFFFFFFFF AND MUL OR SWAP1 SSTORE POP POP PUSH3 0x122 JUMP JUMPDEST PUSH1 0x0 DUP1 REVERT JUMPDEST PUSH1 0x0 PUSH20 0xFFFFFFFFFFFFFFFFFFFFFFFFFFFFFFFFFFFFFFFF DUP3 AND SWAP1 POP SWAP2 SWAP1 POP JUMP JUMPDEST PUSH1 0x0 PUSH3 0xB8 DUP3 PUSH3 0x8B JUMP JUMPDEST SWAP1 POP SWAP2 SWAP1 POP JUMP JUMPDEST PUSH3 0xCA DUP2 PUSH3 0xAB JUMP JUMPDEST DUP2 EQ PUSH3 0xD6 JUMPI PUSH1 0x0 DUP1 REVERT JUMPDEST POP JUMP JUMPDEST PUSH1 0x0 DUP2 MLOAD SWAP1 POP PUSH3 0xEA DUP2 PUSH3 0xBF JUMP JUMPDEST SWAP3 SWAP2 POP POP JUMP JUMPDEST PUSH1 0x0 PUSH1 0x20 DUP3 DUP5 SUB SLT ISZERO PUSH3 0x109 JUMPI PUSH3 0x108 PUSH3 0x86 JUMP JUMPDEST JUMPDEST PUSH1 0x0 PUSH3 0x119 DUP5 DUP3 DUP6 ADD PUSH3 0xD9 JUMP JUMPDEST SWAP2 POP POP SWAP3 SWAP2 POP POP JUMP JUMPDEST PUSH2 0x13A6 DUP1 PUSH3 0x132 PUSH1 0x0 CODECOPY PUSH1 0x0 RETURN INVALID PUSH1 0x80 PUSH1 0x40 MSTORE CALLVALUE DUP1 ISZERO PUSH2 0x10 JUMPI PUSH1 0x0 DUP1 REVERT JUMPDEST POP PUSH1 0x4 CALLDATASIZE LT PUSH2 0x7D JUMPI PUSH1 0x0 CALLDATALOAD PUSH1 0xE0 SHR DUP1 PUSH4 0x49C2A1A6 GT PUSH2 0x5B JUMPI DUP1 PUSH4 0x49C2A1A6 EQ PUSH2 0x101 JUMPI DUP1 PUSH4 0x5652077C EQ PUSH2 0x11D JUMPI DUP1 PUSH4 0xB0340123 EQ PUSH2 0x139 JUMPI DUP1 PUSH4 0xDA35C664 EQ PUSH2 0x157 JUMPI PUSH2 0x7D JUMP JUMPDEST DUP1 PUSH4 0x13CF08B EQ PUSH2 0x82 JUMPI DUP1 PUSH4 0x109FD3CB EQ PUSH2 0xB5 JUMPI DUP1 PUSH4 0x15373E3D EQ PUSH2 0xE5 JUMPI JUMPDEST PUSH1 0x0 DUP1 REVERT JUMPDEST PUSH2 0x9C PUSH1 0x4 DUP1 CALLDATASIZE SUB DUP2 ADD SWAP1 PUSH2 0x97 SWAP2 SWAP1 PUSH2 0x8D7 JUMP JUMPDEST PUSH2 0x175 JUMP JUMPDEST PUSH1 0x40 MLOAD PUSH2 0xAC SWAP5 SWAP4 SWAP3 SWAP2 SWAP1 PUSH2 0x9A3 JUMP JUMPDEST PUSH1 0x40 MLOAD DUP1 SWAP2 SUB SWAP1 RETURN JUMPDEST PUSH2 0xCF PUSH1 0x4 DUP1 CALLDATASIZE SUB DUP2 ADD SWAP1 PUSH2 0xCA SWAP2 SWAP1 PUSH2 0x8D7 JUMP JUMPDEST PUSH2 0x23D JUMP JUMPDEST PUSH1 0x40 MLOAD PUSH2 0xDC SWAP2 SWAP1 PUSH2 0xA0A JUMP JUMPDEST PUSH1 0x40 MLOAD DUP1 SWAP2 SUB SWAP1 RETURN JUMPDEST PUSH2 0xFF PUSH1 0x4 DUP1 CALLDATASIZE SUB DUP2 ADD SWAP1 PUSH2 0xFA SWAP2 SWAP1 PUSH2 0xA51 JUMP JUMPDEST PUSH2 0x25D JUMP JUMPDEST STOP JUMPDEST PUSH2 0x11B PUSH1 0x4 DUP1 CALLDATASIZE SUB DUP2 ADD SWAP1 PUSH2 0x116 SWAP2 SWAP1 PUSH2 0xBC6 JUMP JUMPDEST PUSH2 0x4CD JUMP JUMPDEST STOP JUMPDEST PUSH2 0x137 PUSH1 0x4 DUP1 CALLDATASIZE SUB DUP2 ADD SWAP1 PUSH2 0x132 SWAP2 SWAP1 PUSH2 0x8D7 JUMP JUMPDEST PUSH2 0x659 JUMP JUMPDEST STOP JUMPDEST PUSH2 0x141 PUSH2 0x863 JUMP JUMPDEST PUSH1 0x40 MLOAD PUSH2 0x14E SWAP2 SWAP1 PUSH2 0xC8E JUMP JUMPDEST PUSH1 0x40 MLOAD DUP1 SWAP2 SUB SWAP1 RETURN JUMPDEST PUSH2 0x15F PUSH2 0x887 JUMP JUMPDEST PUSH1 0x40 MLOAD PUSH2 0x16C SWAP2 SWAP1 PUSH2 0xCA9 JUMP JUMPDEST PUSH1 0x40 MLOAD DUP1 SWAP2 SUB SWAP1 RETURN JUMPDEST PUSH1 0x1 DUP2 DUP2 SLOAD DUP2 LT PUSH2 0x185 JUMPI PUSH1 0x0 DUP1 REVERT JUMPDEST SWAP1 PUSH1 0x0 MSTORE PUSH1 0x20 PUSH1 0x0 KECCAK256 SWAP1 PUSH1 0x4 MUL ADD PUSH1 0x0 SWAP2 POP SWAP1 POP DUP1 PUSH1 0x0 ADD DUP1 SLOAD PUSH2 0x1A8 SWAP1 PUSH2 0xCF3 JUMP JUMPDEST DUP1 PUSH1 0x1F ADD PUSH1 0x20 DUP1 SWAP2 DIV MUL PUSH1 0x20 ADD PUSH1 0x40 MLOAD SWAP1 DUP2 ADD PUSH1 0x40 MSTORE DUP1 SWAP3 SWAP2 SWAP1 DUP2 DUP2 MSTORE PUSH1 0x20 ADD DUP3 DUP1 SLOAD PUSH2 0x1D4 SWAP1 PUSH2 0xCF3 JUMP JUMPDEST DUP1 ISZERO PUSH2 0x221 JUMPI DUP1 PUSH1 0x1F LT PUSH2 0x1F6 JUMPI PUSH2 0x100 DUP1 DUP4 SLOAD DIV MUL DUP4 MSTORE SWAP2 PUSH1 0x20 ADD SWAP2 PUSH2 0x221 JUMP JUMPDEST DUP3 ADD SWAP2 SWAP1 PUSH1 0x0 MSTORE PUSH1 0x20 PUSH1 0x0 KECCAK256 SWAP1 JUMPDEST DUP2 SLOAD DUP2 MSTORE SWAP1 PUSH1 0x1 ADD SWAP1 PUSH1 0x20 ADD DUP1 DUP4 GT PUSH2 0x204 JUMPI DUP3 SWAP1 SUB PUSH1 0x1F AND DUP3 ADD SWAP2 JUMPDEST POP POP POP POP POP SWAP1 DUP1 PUSH1 0x1 ADD SLOAD SWAP1 DUP1 PUSH1 0x2 ADD SLOAD SWAP1 DUP1 PUSH1 0x3 ADD SLOAD SWAP1 POP DUP5 JUMP JUMPDEST PUSH1 0x4 PUSH1 0x20 MSTORE DUP1 PUSH1 0x0 MSTORE PUSH1 0x40 PUSH1 0x0 KECCAK256 PUSH1 0x0 SWAP2 POP SLOAD SWAP1 PUSH2 0x100 EXP SWAP1 DIV PUSH1 0xFF AND DUP2 JUMP JUMPDEST PUSH1 0x0 ISZERO ISZERO PUSH1 0x3 PUSH1 0x0 CALLER PUSH20 0xFFFFFFFFFFFFFFFFFFFFFFFFFFFFFFFFFFFFFFFF AND PUSH20 0xFFFFFFFFFFFFFFFFFFFFFFFFFFFFFFFFFFFFFFFF AND DUP2 MSTORE PUSH1 0x20 ADD SWAP1 DUP2 MSTORE PUSH1 0x20 ADD PUSH1 0x0 KECCAK256 PUSH1 0x0 DUP5 DUP2 MSTORE PUSH1 0x20 ADD SWAP1 DUP2 MSTORE PUSH1 0x20 ADD PUSH1 0x0 KECCAK256 PUSH1 0x0 SWAP1 SLOAD SWAP1 PUSH2 0x100 EXP SWAP1 DIV PUSH1 0xFF AND ISZERO ISZERO EQ PUSH2 0x301 JUMPI PUSH1 0x40 MLOAD PUSH32 0x8C379A000000000000000000000000000000000000000000000000000000000 DUP2 MSTORE PUSH1 0x4 ADD PUSH2 0x2F8 SWAP1 PUSH2 0xD70 JUMP JUMPDEST PUSH1 0x40 MLOAD DUP1 SWAP2 SUB SWAP1 REVERT JUMPDEST PUSH1 0x0 DUP1 PUSH1 0x0 SWAP1 SLOAD SWAP1 PUSH2 0x100 EXP SWAP1 DIV PUSH20 0xFFFFFFFFFFFFFFFFFFFFFFFFFFFFFFFFFFFFFFFF AND PUSH20 0xFFFFFFFFFFFFFFFFFFFFFFFFFFFFFFFFFFFFFFFF AND PUSH4 0x70A08231 CALLER PUSH1 0x40 MLOAD DUP3 PUSH4 0xFFFFFFFF AND PUSH1 0xE0 SHL DUP2 MSTORE PUSH1 0x4 ADD PUSH2 0x35D SWAP2 SWAP1 PUSH2 0xDB1 JUMP JUMPDEST PUSH1 0x20 PUSH1 0x40 MLOAD DUP1 DUP4 SUB DUP2 PUSH1 0x0 DUP8 GAS CALL ISZERO DUP1 ISZERO PUSH2 0x37C JUMPI RETURNDATASIZE PUSH1 0x0 DUP1 RETURNDATACOPY RETURNDATASIZE PUSH1 0x0 REVERT JUMPDEST POP POP POP POP PUSH1 0x40 MLOAD RETURNDATASIZE PUSH1 0x1F NOT PUSH1 0x1F DUP3 ADD AND DUP3 ADD DUP1 PUSH1 0x40 MSTORE POP DUP2 ADD SWAP1 PUSH2 0x3A0 SWAP2 SWAP1 PUSH2 0xDE1 JUMP JUMPDEST SWAP1 POP DUP2 ISZERO PUSH2 0x3E9 JUMPI DUP1 PUSH1 0x1 DUP5 DUP2 SLOAD DUP2 LT PUSH2 0x3BD JUMPI PUSH2 0x3BC PUSH2 0xE0E JUMP JUMPDEST JUMPDEST SWAP1 PUSH1 0x0 MSTORE PUSH1 0x20 PUSH1 0x0 KECCAK256 SWAP1 PUSH1 0x4 MUL ADD PUSH1 0x1 ADD PUSH1 0x0 DUP3 DUP3 SLOAD PUSH2 0x3DD SWAP2 SWAP1 PUSH2 0xE6C JUMP JUMPDEST SWAP3 POP POP DUP2 SWAP1 SSTORE POP PUSH2 0x426 JUMP JUMPDEST DUP1 PUSH1 0x1 DUP5 DUP2 SLOAD DUP2 LT PUSH2 0x3FE JUMPI PUSH2 0x3FD PUSH2 0xE0E JUMP JUMPDEST JUMPDEST SWAP1 PUSH1 0x0 MSTORE PUSH1 0x20 PUSH1 0x0 KECCAK256 SWAP1 PUSH1 0x4 MUL ADD PUSH1 0x2 ADD PUSH1 0x0 DUP3 DUP3 SLOAD PUSH2 0x41E SWAP2 SWAP1 PUSH2 0xE6C JUMP JUMPDEST SWAP3 POP POP DUP2 SWAP1 SSTORE POP JUMPDEST PUSH1 0x1 PUSH1 0x3 PUSH1 0x0 CALLER PUSH20 0xFFFFFFFFFFFFFFFFFFFFFFFFFFFFFFFFFFFFFFFF AND PUSH20 0xFFFFFFFFFFFFFFFFFFFFFFFFFFFFFFFFFFFFFFFF AND DUP2 MSTORE PUSH1 0x20 ADD SWAP1 DUP2 MSTORE PUSH1 0x20 ADD PUSH1 0x0 KECCAK256 PUSH1 0x0 DUP6 DUP2 MSTORE PUSH1 0x20 ADD SWAP1 DUP2 MSTORE PUSH1 0x20 ADD PUSH1 0x0 KECCAK256 PUSH1 0x0 PUSH2 0x100 EXP DUP2 SLOAD DUP2 PUSH1 0xFF MUL NOT AND SWAP1 DUP4 ISZERO ISZERO MUL OR SWAP1 SSTORE POP PUSH32 0x6DFAF9F72A4F8D7CA175050B9EBBE67C0FA6E9792FAFB145F9E4224A6B49AA95 CALLER DUP5 PUSH1 0x40 MLOAD PUSH2 0x4C0 SWAP3 SWAP2 SWAP1 PUSH2 0xEA0 JUMP JUMPDEST PUSH1 0x40 MLOAD DUP1 SWAP2 SUB SWAP1 LOG1 POP POP POP JUMP JUMPDEST PUSH1 0x0 DUP1 SLOAD SWAP1 PUSH2 0x100 EXP SWAP1 DIV PUSH20 0xFFFFFFFFFFFFFFFFFFFFFFFFFFFFFFFFFFFFFFFF AND PUSH20 0xFFFFFFFFFFFFFFFFFFFFFFFFFFFFFFFFFFFFFFFF AND PUSH4 0x23B872DD CALLER ADDRESS PUSH1 0x14 PUSH1 0x40 MLOAD DUP5 PUSH4 0xFFFFFFFF AND PUSH1 0xE0 SHL DUP2 MSTORE PUSH1 0x4 ADD PUSH2 0x52B SWAP4 SWAP3 SWAP2 SWAP1 PUSH2 0xF04 JUMP JUMPDEST PUSH1 0x20 PUSH1 0x40 MLOAD DUP1 DUP4 SUB DUP2 PUSH1 0x0 DUP8 GAS CALL ISZERO DUP1 ISZERO PUSH2 0x54A JUMPI RETURNDATASIZE PUSH1 0x0 DUP1 RETURNDATACOPY RETURNDATASIZE PUSH1 0x0 REVERT JUMPDEST POP POP POP POP PUSH1 0x40 MLOAD RETURNDATASIZE PUSH1 0x1F NOT PUSH1 0x1F DUP3 ADD AND DUP3 ADD DUP1 PUSH1 0x40 MSTORE POP DUP2 ADD SWAP1 PUSH2 0x56E SWAP2 SWAP1 PUSH2 0xF50 JUMP JUMPDEST POP PUSH1 0x0 PUSH1 0x40 MLOAD DUP1 PUSH1 0x80 ADD PUSH1 0x40 MSTORE DUP1 DUP4 DUP2 MSTORE PUSH1 0x20 ADD PUSH1 0x0 DUP2 MSTORE PUSH1 0x20 ADD PUSH1 0x0 DUP2 MSTORE PUSH1 0x20 ADD PUSH3 0x3F480 TIMESTAMP PUSH2 0x59F SWAP2 SWAP1 PUSH2 0xE6C JUMP JUMPDEST DUP2 MSTORE POP SWAP1 POP PUSH1 0x2 PUSH1 0x0 DUP2 SLOAD PUSH2 0x5B3 SWAP1 PUSH2 0xF7D JUMP JUMPDEST SWAP2 SWAP1 POP DUP2 SWAP1 SSTORE POP PUSH1 0x1 DUP2 SWAP1 DUP1 PUSH1 0x1 DUP2 SLOAD ADD DUP1 DUP3 SSTORE DUP1 SWAP2 POP POP PUSH1 0x1 SWAP1 SUB SWAP1 PUSH1 0x0 MSTORE PUSH1 0x20 PUSH1 0x0 KECCAK256 SWAP1 PUSH1 0x4 MUL ADD PUSH1 0x0 SWAP1 SWAP2 SWAP1 SWAP2 SWAP1 SWAP2 POP PUSH1 0x0 DUP3 ADD MLOAD DUP2 PUSH1 0x0 ADD SWAP1 DUP2 PUSH2 0x5FB SWAP2 SWAP1 PUSH2 0x1167 JUMP JUMPDEST POP PUSH1 0x20 DUP3 ADD MLOAD DUP2 PUSH1 0x1 ADD SSTORE PUSH1 0x40 DUP3 ADD MLOAD DUP2 PUSH1 0x2 ADD SSTORE PUSH1 0x60 DUP3 ADD MLOAD DUP2 PUSH1 0x3 ADD SSTORE POP POP PUSH32 0xCD60CE1B3BFCAF4BE4681239B37E4C30FCB95E4B6D3DA5B1679AED03AD47FED0 PUSH1 0x2 SLOAD PUSH1 0x40 MLOAD PUSH2 0x64D SWAP2 SWAP1 PUSH2 0xCA9 JUMP JUMPDEST PUSH1 0x40 MLOAD DUP1 SWAP2 SUB SWAP1 LOG1 POP POP JUMP JUMPDEST PUSH1 0x1 DUP2 DUP2 SLOAD DUP2 LT PUSH2 0x66D JUMPI PUSH2 0x66C PUSH2 0xE0E JUMP JUMPDEST JUMPDEST SWAP1 PUSH1 0x0 MSTORE PUSH1 0x20 PUSH1 0x0 KECCAK256 SWAP1 PUSH1 0x4 MUL ADD PUSH1 0x3 ADD SLOAD TIMESTAMP LT ISZERO PUSH2 0x6C1 JUMPI PUSH1 0x40 MLOAD PUSH32 0x8C379A000000000000000000000000000000000000000000000000000000000 DUP2 MSTORE PUSH1 0x4 ADD PUSH2 0x6B8 SWAP1 PUSH2 0x1285 JUMP JUMPDEST PUSH1 0x40 MLOAD DUP1 SWAP2 SUB SWAP1 REVERT JUMPDEST PUSH1 0x0 PUSH1 0x1 DUP3 DUP2 SLOAD DUP2 LT PUSH2 0x6D7 JUMPI PUSH2 0x6D6 PUSH2 0xE0E JUMP JUMPDEST JUMPDEST SWAP1 PUSH1 0x0 MSTORE PUSH1 0x20 PUSH1 0x0 KECCAK256 SWAP1 PUSH1 0x4 MUL ADD PUSH1 0x1 ADD SLOAD SWAP1 POP PUSH1 0x0 DUP1 PUSH1 0x0 SWAP1 SLOAD SWAP1 PUSH2 0x100 EXP SWAP1 DIV PUSH20 0xFFFFFFFFFFFFFFFFFFFFFFFFFFFFFFFFFFFFFFFF AND PUSH20 0xFFFFFFFFFFFFFFFFFFFFFFFFFFFFFFFFFFFFFFFF AND PUSH4 0x18160DDD PUSH1 0x40 MLOAD DUP2 PUSH4 0xFFFFFFFF AND PUSH1 0xE0 SHL DUP2 MSTORE PUSH1 0x4 ADD PUSH1 0x20 PUSH1 0x40 MLOAD DUP1 DUP4 SUB DUP2 PUSH1 0x0 DUP8 GAS CALL ISZERO DUP1 ISZERO PUSH2 0x75B JUMPI RETURNDATASIZE PUSH1 0x0 DUP1 RETURNDATACOPY RETURNDATASIZE PUSH1 0x0 REVERT JUMPDEST POP POP POP POP PUSH1 0x40 MLOAD RETURNDATASIZE PUSH1 0x1F NOT PUSH1 0x1F DUP3 ADD AND DUP3 ADD DUP1 PUSH1 0x40 MSTORE POP DUP2 ADD SWAP1 PUSH2 0x77F SWAP2 SWAP1 PUSH2 0xDE1 JUMP JUMPDEST SWAP1 POP PUSH1 0x0 PUSH1 0x64 DUP3 DUP5 PUSH2 0x791 SWAP2 SWAP1 PUSH2 0x12D4 JUMP JUMPDEST PUSH2 0x79B SWAP2 SWAP1 PUSH2 0x1305 JUMP JUMPDEST SWAP1 POP PUSH1 0x32 DUP2 GT ISZERO PUSH2 0x7D7 JUMPI PUSH1 0x1 PUSH1 0x4 PUSH1 0x0 DUP7 DUP2 MSTORE PUSH1 0x20 ADD SWAP1 DUP2 MSTORE PUSH1 0x20 ADD PUSH1 0x0 KECCAK256 PUSH1 0x0 PUSH2 0x100 EXP DUP2 SLOAD DUP2 PUSH1 0xFF MUL NOT AND SWAP1 DUP4 ISZERO ISZERO MUL OR SWAP1 SSTORE POP PUSH2 0x804 JUMP JUMPDEST PUSH1 0x0 PUSH1 0x4 PUSH1 0x0 DUP7 DUP2 MSTORE PUSH1 0x20 ADD SWAP1 DUP2 MSTORE PUSH1 0x20 ADD PUSH1 0x0 KECCAK256 PUSH1 0x0 PUSH2 0x100 EXP DUP2 SLOAD DUP2 PUSH1 0xFF MUL NOT AND SWAP1 DUP4 ISZERO ISZERO MUL OR SWAP1 SSTORE POP JUMPDEST PUSH32 0x2DAE7D7F9BF4BE3977892BE3940F6D40BCDFB213D5CC1D55F247CB816B1BDC21 DUP5 PUSH1 0x4 PUSH1 0x0 DUP8 DUP2 MSTORE PUSH1 0x20 ADD SWAP1 DUP2 MSTORE PUSH1 0x20 ADD PUSH1 0x0 KECCAK256 PUSH1 0x0 SWAP1 SLOAD SWAP1 PUSH2 0x100 EXP SWAP1 DIV PUSH1 0xFF AND PUSH1 0x40 MLOAD PUSH2 0x855 SWAP3 SWAP2 SWAP1 PUSH2 0x1347 JUMP JUMPDEST PUSH1 0x40 MLOAD DUP1 SWAP2 SUB SWAP1 LOG1 POP POP POP POP JUMP JUMPDEST PUSH1 0x0 DUP1 SLOAD SWAP1 PUSH2 0x100 EXP SWAP1 DIV PUSH20 0xFFFFFFFFFFFFFFFFFFFFFFFFFFFFFFFFFFFFFFFF AND DUP2 JUMP JUMPDEST PUSH1 0x2 SLOAD DUP2 JUMP JUMPDEST PUSH1 0x0 PUSH1 0x40 MLOAD SWAP1 POP SWAP1 JUMP JUMPDEST PUSH1 0x0 DUP1 REVERT JUMPDEST PUSH1 0x0 DUP1 REVERT JUMPDEST PUSH1 0x0 DUP2 SWAP1 POP SWAP2 SWAP1 POP JUMP JUMPDEST PUSH2 0x8B4 DUP2 PUSH2 0x8A1 JUMP JUMPDEST DUP2 EQ PUSH2 0x8BF JUMPI PUSH1 0x0 DUP1 REVERT JUMPDEST POP JUMP JUMPDEST PUSH1 0x0 DUP2 CALLDATALOAD SWAP1 POP PUSH2 0x8D1 DUP2 PUSH2 0x8AB JUMP JUMPDEST SWAP3 SWAP2 POP POP JUMP JUMPDEST PUSH1 0x0 PUSH1 0x20 DUP3 DUP5 SUB SLT ISZERO PUSH2 0x8ED JUMPI PUSH2 0x8EC PUSH2 0x897 JUMP JUMPDEST JUMPDEST PUSH1 0x0 PUSH2 0x8FB DUP5 DUP3 DUP6 ADD PUSH2 0x8C2 JUMP JUMPDEST SWAP2 POP POP SWAP3 SWAP2 POP POP JUMP JUMPDEST PUSH1 0x0 DUP2 MLOAD SWAP1 POP SWAP2 SWAP1 POP JUMP JUMPDEST PUSH1 0x0 DUP3 DUP3 MSTORE PUSH1 0x20 DUP3 ADD SWAP1 POP SWAP3 SWAP2 POP POP JUMP JUMPDEST PUSH1 0x0 JUMPDEST DUP4 DUP2 LT ISZERO PUSH2 0x93E JUMPI DUP1 DUP3 ADD MLOAD DUP2 DUP5 ADD MSTORE PUSH1 0x20 DUP2 ADD SWAP1 POP PUSH2 0x923 JUMP JUMPDEST PUSH1 0x0 DUP5 DUP5 ADD MSTORE POP POP POP POP JUMP JUMPDEST PUSH1 0x0 PUSH1 0x1F NOT PUSH1 0x1F DUP4 ADD AND SWAP1 POP SWAP2 SWAP1 POP JUMP JUMPDEST PUSH1 0x0 PUSH2 0x966 DUP3 PUSH2 0x904 JUMP JUMPDEST PUSH2 0x970 DUP2 DUP6 PUSH2 0x90F JUMP JUMPDEST SWAP4 POP PUSH2 0x980 DUP2 DUP6 PUSH1 0x20 DUP7 ADD PUSH2 0x920 JUMP JUMPDEST PUSH2 0x989 DUP2 PUSH2 0x94A JUMP JUMPDEST DUP5 ADD SWAP2 POP POP SWAP3 SWAP2 POP POP JUMP JUMPDEST PUSH2 0x99D DUP2 PUSH2 0x8A1 JUMP JUMPDEST DUP3 MSTORE POP POP JUMP JUMPDEST PUSH1 0x0 PUSH1 0x80 DUP3 ADD SWAP1 POP DUP2 DUP2 SUB PUSH1 0x0 DUP4 ADD MSTORE PUSH2 0x9BD DUP2 DUP8 PUSH2 0x95B JUMP JUMPDEST SWAP1 POP PUSH2 0x9CC PUSH1 0x20 DUP4 ADD DUP7 PUSH2 0x994 JUMP JUMPDEST PUSH2 0x9D9 PUSH1 0x40 DUP4 ADD DUP6 PUSH2 0x994 JUMP JUMPDEST PUSH2 0x9E6 PUSH1 0x60 DUP4 ADD DUP5 PUSH2 0x994 JUMP JUMPDEST SWAP6 SWAP5 POP POP POP POP POP JUMP JUMPDEST PUSH1 0x0 DUP2 ISZERO ISZERO SWAP1 POP SWAP2 SWAP1 POP JUMP JUMPDEST PUSH2 0xA04 DUP2 PUSH2 0x9EF JUMP JUMPDEST DUP3 MSTORE POP POP JUMP JUMPDEST PUSH1 0x0 PUSH1 0x20 DUP3 ADD SWAP1 POP PUSH2 0xA1F PUSH1 0x0 DUP4 ADD DUP5 PUSH2 0x9FB JUMP JUMPDEST SWAP3 SWAP2 POP POP JUMP JUMPDEST PUSH2 0xA2E DUP2 PUSH2 0x9EF JUMP JUMPDEST DUP2 EQ PUSH2 0xA39 JUMPI PUSH1 0x0 DUP1 REVERT JUMPDEST POP JUMP JUMPDEST PUSH1 0x0 DUP2 CALLDATALOAD SWAP1 POP PUSH2 0xA4B DUP2 PUSH2 0xA25 JUMP JUMPDEST SWAP3 SWAP2 POP POP JUMP JUMPDEST PUSH1 0x0 DUP1 PUSH1 0x40 DUP4 DUP6 SUB SLT ISZERO PUSH2 0xA68 JUMPI PUSH2 0xA67 PUSH2 0x897 JUMP JUMPDEST JUMPDEST PUSH1 0x0 PUSH2 0xA76 DUP6 DUP3 DUP7 ADD PUSH2 0x8C2 JUMP JUMPDEST SWAP3 POP POP PUSH1 0x20 PUSH2 0xA87 DUP6 DUP3 DUP7 ADD PUSH2 0xA3C JUMP JUMPDEST SWAP2 POP POP SWAP3 POP SWAP3 SWAP1 POP JUMP JUMPDEST PUSH1 0x0 DUP1 REVERT JUMPDEST PUSH1 0x0 DUP1 REVERT JUMPDEST PUSH32 0x4E487B7100000000000000000000000000000000000000000000000000000000 PUSH1 0x0 MSTORE PUSH1 0x41 PUSH1 0x4 MSTORE PUSH1 0x24 PUSH1 0x0 REVERT JUMPDEST PUSH2 0xAD3 DUP3 PUSH2 0x94A JUMP JUMPDEST DUP2 ADD DUP2 DUP2 LT PUSH8 0xFFFFFFFFFFFFFFFF DUP3 GT OR ISZERO PUSH2 0xAF2 JUMPI PUSH2 0xAF1 PUSH2 0xA9B JUMP JUMPDEST JUMPDEST DUP1 PUSH1 0x40 MSTORE POP POP POP JUMP JUMPDEST PUSH1 0x0 PUSH2 0xB05 PUSH2 0x88D JUMP JUMPDEST SWAP1 POP PUSH2 0xB11 DUP3 DUP3 PUSH2 0xACA JUMP JUMPDEST SWAP2 SWAP1 POP JUMP JUMPDEST PUSH1 0x0 PUSH8 0xFFFFFFFFFFFFFFFF DUP3 GT ISZERO PUSH2 0xB31 JUMPI PUSH2 0xB30 PUSH2 0xA9B JUMP JUMPDEST JUMPDEST PUSH2 0xB3A DUP3 PUSH2 0x94A JUMP JUMPDEST SWAP1 POP PUSH1 0x20 DUP2 ADD SWAP1 POP SWAP2 SWAP1 POP JUMP JUMPDEST DUP3 DUP2 DUP4 CALLDATACOPY PUSH1 0x0 DUP4 DUP4 ADD MSTORE POP POP POP JUMP JUMPDEST PUSH1 0x0 PUSH2 0xB69 PUSH2 0xB64 DUP5 PUSH2 0xB16 JUMP JUMPDEST PUSH2 0xAFB JUMP JUMPDEST SWAP1 POP DUP3 DUP2 MSTORE PUSH1 0x20 DUP2 ADD DUP5 DUP5 DUP5 ADD GT ISZERO PUSH2 0xB85 JUMPI PUSH2 0xB84 PUSH2 0xA96 JUMP JUMPDEST JUMPDEST PUSH2 0xB90 DUP5 DUP3 DUP6 PUSH2 0xB47 JUMP JUMPDEST POP SWAP4 SWAP3 POP POP POP JUMP JUMPDEST PUSH1 0x0 DUP3 PUSH1 0x1F DUP4 ADD SLT PUSH2 0xBAD JUMPI PUSH2 0xBAC PUSH2 0xA91 JUMP JUMPDEST JUMPDEST DUP2 CALLDATALOAD PUSH2 0xBBD DUP5 DUP3 PUSH1 0x20 DUP7 ADD PUSH2 0xB56 JUMP JUMPDEST SWAP2 POP POP SWAP3 SWAP2 POP POP JUMP JUMPDEST PUSH1 0x0 PUSH1 0x20 DUP3 DUP5 SUB SLT ISZERO PUSH2 0xBDC JUMPI PUSH2 0xBDB PUSH2 0x897 JUMP JUMPDEST JUMPDEST PUSH1 0x0 DUP3 ADD CALLDATALOAD PUSH8 0xFFFFFFFFFFFFFFFF DUP2 GT ISZERO PUSH2 0xBFA JUMPI PUSH2 0xBF9 PUSH2 0x89C JUMP JUMPDEST JUMPDEST PUSH2 0xC06 DUP5 DUP3 DUP6 ADD PUSH2 0xB98 JUMP JUMPDEST SWAP2 POP POP SWAP3 SWAP2 POP POP JUMP JUMPDEST PUSH1 0x0 PUSH20 0xFFFFFFFFFFFFFFFFFFFFFFFFFFFFFFFFFFFFFFFF DUP3 AND SWAP1 POP SWAP2 SWAP1 POP JUMP JUMPDEST PUSH1 0x0 DUP2 SWAP1 POP SWAP2 SWAP1 POP JUMP JUMPDEST PUSH1 0x0 PUSH2 0xC54 PUSH2 0xC4F PUSH2 0xC4A DUP5 PUSH2 0xC0F JUMP JUMPDEST PUSH2 0xC2F JUMP JUMPDEST PUSH2 0xC0F JUMP JUMPDEST SWAP1 POP SWAP2 SWAP1 POP JUMP JUMPDEST PUSH1 0x0 PUSH2 0xC66 DUP3 PUSH2 0xC39 JUMP JUMPDEST SWAP1 POP SWAP2 SWAP1 POP JUMP JUMPDEST PUSH1 0x0 PUSH2 0xC78 DUP3 PUSH2 0xC5B JUMP JUMPDEST SWAP1 POP SWAP2 SWAP1 POP JUMP JUMPDEST PUSH2 0xC88 DUP2 PUSH2 0xC6D JUMP JUMPDEST DUP3 MSTORE POP POP JUMP JUMPDEST PUSH1 0x0 PUSH1 0x20 DUP3 ADD SWAP1 POP PUSH2 0xCA3 PUSH1 0x0 DUP4 ADD DUP5 PUSH2 0xC7F JUMP JUMPDEST SWAP3 SWAP2 POP POP JUMP JUMPDEST PUSH1 0x0 PUSH1 0x20 DUP3 ADD SWAP1 POP PUSH2 0xCBE PUSH1 0x0 DUP4 ADD DUP5 PUSH2 0x994 JUMP JUMPDEST SWAP3 SWAP2 POP POP JUMP JUMPDEST PUSH32 0x4E487B7100000000000000000000000000000000000000000000000000000000 PUSH1 0x0 MSTORE PUSH1 0x22 PUSH1 0x4 MSTORE PUSH1 0x24 PUSH1 0x0 REVERT JUMPDEST PUSH1 0x0 PUSH1 0x2 DUP3 DIV SWAP1 POP PUSH1 0x1 DUP3 AND DUP1 PUSH2 0xD0B JUMPI PUSH1 0x7F DUP3 AND SWAP2 POP JUMPDEST PUSH1 0x20 DUP3 LT DUP2 SUB PUSH2 0xD1E JUMPI PUSH2 0xD1D PUSH2 0xCC4 JUMP JUMPDEST JUMPDEST POP SWAP2 SWAP1 POP JUMP JUMPDEST PUSH32 0x416C726561647920766F74656400000000000000000000000000000000000000 PUSH1 0x0 DUP3 ADD MSTORE POP JUMP JUMPDEST PUSH1 0x0 PUSH2 0xD5A PUSH1 0xD DUP4 PUSH2 0x90F JUMP JUMPDEST SWAP2 POP PUSH2 0xD65 DUP3 PUSH2 0xD24 JUMP JUMPDEST PUSH1 0x20 DUP3 ADD SWAP1 POP SWAP2 SWAP1 POP JUMP JUMPDEST PUSH1 0x0 PUSH1 0x20 DUP3 ADD SWAP1 POP DUP2 DUP2 SUB PUSH1 0x0 DUP4 ADD MSTORE PUSH2 0xD89 DUP2 PUSH2 0xD4D JUMP JUMPDEST SWAP1 POP SWAP2 SWAP1 POP JUMP JUMPDEST PUSH1 0x0 PUSH2 0xD9B DUP3 PUSH2 0xC0F JUMP JUMPDEST SWAP1 POP SWAP2 SWAP1 POP JUMP JUMPDEST PUSH2 0xDAB DUP2 PUSH2 0xD90 JUMP JUMPDEST DUP3 MSTORE POP POP JUMP JUMPDEST PUSH1 0x0 PUSH1 0x20 DUP3 ADD SWAP1 POP PUSH2 0xDC6 PUSH1 0x0 DUP4 ADD DUP5 PUSH2 0xDA2 JUMP JUMPDEST SWAP3 SWAP2 POP POP JUMP JUMPDEST PUSH1 0x0 DUP2 MLOAD SWAP1 POP PUSH2 0xDDB DUP2 PUSH2 0x8AB JUMP JUMPDEST SWAP3 SWAP2 POP POP JUMP JUMPDEST PUSH1 0x0 PUSH1 0x20 DUP3 DUP5 SUB SLT ISZERO PUSH2 0xDF7 JUMPI PUSH2 0xDF6 PUSH2 0x897 JUMP JUMPDEST JUMPDEST PUSH1 0x0 PUSH2 0xE05 DUP5 DUP3 DUP6 ADD PUSH2 0xDCC JUMP JUMPDEST SWAP2 POP POP SWAP3 SWAP2 POP POP JUMP JUMPDEST PUSH32 0x4E487B7100000000000000000000000000000000000000000000000000000000 PUSH1 0x0 MSTORE PUSH1 0x32 PUSH1 0x4 MSTORE PUSH1 0x24 PUSH1 0x0 REVERT JUMPDEST PUSH32 0x4E487B7100000000000000000000000000000000000000000000000000000000 PUSH1 0x0 MSTORE PUSH1 0x11 PUSH1 0x4 MSTORE PUSH1 0x24 PUSH1 0x0 REVERT JUMPDEST PUSH1 0x0 PUSH2 0xE77 DUP3 PUSH2 0x8A1 JUMP JUMPDEST SWAP2 POP PUSH2 0xE82 DUP4 PUSH2 0x8A1 JUMP JUMPDEST SWAP3 POP DUP3 DUP3 ADD SWAP1 POP DUP1 DUP3 GT ISZERO PUSH2 0xE9A JUMPI PUSH2 0xE99 PUSH2 0xE3D JUMP JUMPDEST JUMPDEST SWAP3 SWAP2 POP POP JUMP JUMPDEST PUSH1 0x0 PUSH1 0x40 DUP3 ADD SWAP1 POP PUSH2 0xEB5 PUSH1 0x0 DUP4 ADD DUP6 PUSH2 0xDA2 JUMP JUMPDEST PUSH2 0xEC2 PUSH1 0x20 DUP4 ADD DUP5 PUSH2 0x994 JUMP JUMPDEST SWAP4 SWAP3 POP POP POP JUMP JUMPDEST PUSH1 0x0 DUP2 SWAP1 POP SWAP2 SWAP1 POP JUMP JUMPDEST PUSH1 0x0 PUSH2 0xEEE PUSH2 0xEE9 PUSH2 0xEE4 DUP5 PUSH2 0xEC9 JUMP JUMPDEST PUSH2 0xC2F JUMP JUMPDEST PUSH2 0x8A1 JUMP JUMPDEST SWAP1 POP SWAP2 SWAP1 POP JUMP JUMPDEST PUSH2 0xEFE DUP2 PUSH2 0xED3 JUMP JUMPDEST DUP3 MSTORE POP POP JUMP JUMPDEST PUSH1 0x0 PUSH1 0x60 DUP3 ADD SWAP1 POP PUSH2 0xF19 PUSH1 0x0 DUP4 ADD DUP7 PUSH2 0xDA2 JUMP JUMPDEST PUSH2 0xF26 PUSH1 0x20 DUP4 ADD DUP6 PUSH2 0xDA2 JUMP JUMPDEST PUSH2 0xF33 PUSH1 0x40 DUP4 ADD DUP5 PUSH2 0xEF5 JUMP JUMPDEST SWAP5 SWAP4 POP POP POP POP JUMP JUMPDEST PUSH1 0x0 DUP2 MLOAD SWAP1 POP PUSH2 0xF4A DUP2 PUSH2 0xA25 JUMP JUMPDEST SWAP3 SWAP2 POP POP JUMP JUMPDEST PUSH1 0x0 PUSH1 0x20 DUP3 DUP5 SUB SLT ISZERO PUSH2 0xF66 JUMPI PUSH2 0xF65 PUSH2 0x897 JUMP JUMPDEST JUMPDEST PUSH1 0x0 PUSH2 0xF74 DUP5 DUP3 DUP6 ADD PUSH2 0xF3B JUMP JUMPDEST SWAP2 POP POP SWAP3 SWAP2 POP POP JUMP JUMPDEST PUSH1 0x0 PUSH2 0xF88 DUP3 PUSH2 0x8A1 JUMP JUMPDEST SWAP2 POP PUSH32 0xFFFFFFFFFFFFFFFFFFFFFFFFFFFFFFFFFFFFFFFFFFFFFFFFFFFFFFFFFFFFFFFF DUP3 SUB PUSH2 0xFBA JUMPI PUSH2 0xFB9 PUSH2 0xE3D JUMP JUMPDEST JUMPDEST PUSH1 0x1 DUP3 ADD SWAP1 POP SWAP2 SWAP1 POP JUMP JUMPDEST PUSH1 0x0 DUP2 SWAP1 POP DUP2 PUSH1 0x0 MSTORE PUSH1 0x20 PUSH1 0x0 KECCAK256 SWAP1 POP SWAP2 SWAP1 POP JUMP JUMPDEST PUSH1 0x0 PUSH1 0x20 PUSH1 0x1F DUP4 ADD DIV SWAP1 POP SWAP2 SWAP1 POP JUMP JUMPDEST PUSH1 0x0 DUP3 DUP3 SHL SWAP1 POP SWAP3 SWAP2 POP POP JUMP JUMPDEST PUSH1 0x0 PUSH1 0x8 DUP4 MUL PUSH2 0x1027 PUSH32 0xFFFFFFFFFFFFFFFFFFFFFFFFFFFFFFFFFFFFFFFFFFFFFFFFFFFFFFFFFFFFFFFF DUP3 PUSH2 0xFEA JUMP JUMPDEST PUSH2 0x1031 DUP7 DUP4 PUSH2 0xFEA JUMP JUMPDEST SWAP6 POP DUP1 NOT DUP5 AND SWAP4 POP DUP1 DUP7 AND DUP5 OR SWAP3 POP POP POP SWAP4 SWAP3 POP POP POP JUMP JUMPDEST PUSH1 0x0 PUSH2 0x1064 PUSH2 0x105F PUSH2 0x105A DUP5 PUSH2 0x8A1 JUMP JUMPDEST PUSH2 0xC2F JUMP JUMPDEST PUSH2 0x8A1 JUMP JUMPDEST SWAP1 POP SWAP2 SWAP1 POP JUMP JUMPDEST PUSH1 0x0 DUP2 SWAP1 POP SWAP2 SWAP1 POP JUMP JUMPDEST PUSH2 0x107E DUP4 PUSH2 0x1049 JUMP JUMPDEST PUSH2 0x1092 PUSH2 0x108A DUP3 PUSH2 0x106B JUMP JUMPDEST DUP5 DUP5 SLOAD PUSH2 0xFF7 JUMP JUMPDEST DUP3 SSTORE POP POP POP POP JUMP JUMPDEST PUSH1 0x0 SWAP1 JUMP JUMPDEST PUSH2 0x10A7 PUSH2 0x109A JUMP JUMPDEST PUSH2 0x10B2 DUP2 DUP5 DUP5 PUSH2 0x1075 JUMP JUMPDEST POP POP POP JUMP JUMPDEST JUMPDEST DUP2 DUP2 LT ISZERO PUSH2 0x10D6 JUMPI PUSH2 0x10CB PUSH1 0x0 DUP3 PUSH2 0x109F JUMP JUMPDEST PUSH1 0x1 DUP2 ADD SWAP1 POP PUSH2 0x10B8 JUMP JUMPDEST POP POP JUMP JUMPDEST PUSH1 0x1F DUP3 GT ISZERO PUSH2 0x111B JUMPI PUSH2 0x10EC DUP2 PUSH2 0xFC5 JUMP JUMPDEST PUSH2 0x10F5 DUP5 PUSH2 0xFDA JUMP JUMPDEST DUP2 ADD PUSH1 0x20 DUP6 LT ISZERO PUSH2 0x1104 JUMPI DUP2 SWAP1 POP JUMPDEST PUSH2 0x1118 PUSH2 0x1110 DUP6 PUSH2 0xFDA JUMP JUMPDEST DUP4 ADD DUP3 PUSH2 0x10B7 JUMP JUMPDEST POP POP JUMPDEST POP POP POP JUMP JUMPDEST PUSH1 0x0 DUP3 DUP3 SHR SWAP1 POP SWAP3 SWAP2 POP POP JUMP JUMPDEST PUSH1 0x0 PUSH2 0x113E PUSH1 0x0 NOT DUP5 PUSH1 0x8 MUL PUSH2 0x1120 JUMP JUMPDEST NOT DUP1 DUP4 AND SWAP2 POP POP SWAP3 SWAP2 POP POP JUMP JUMPDEST PUSH1 0x0 PUSH2 0x1157 DUP4 DUP4 PUSH2 0x112D JUMP JUMPDEST SWAP2 POP DUP3 PUSH1 0x2 MUL DUP3 OR SWAP1 POP SWAP3 SWAP2 POP POP JUMP JUMPDEST PUSH2 0x1170 DUP3 PUSH2 0x904 JUMP JUMPDEST PUSH8 0xFFFFFFFFFFFFFFFF DUP2 GT ISZERO PUSH2 0x1189 JUMPI PUSH2 0x1188 PUSH2 0xA9B JUMP JUMPDEST JUMPDEST PUSH2 0x1193 DUP3 SLOAD PUSH2 0xCF3 JUMP JUMPDEST PUSH2 0x119E DUP3 DUP3 DUP6 PUSH2 0x10DA JUMP JUMPDEST PUSH1 0x0 PUSH1 0x20 SWAP1 POP PUSH1 0x1F DUP4 GT PUSH1 0x1 DUP2 EQ PUSH2 0x11D1 JUMPI PUSH1 0x0 DUP5 ISZERO PUSH2 0x11BF JUMPI DUP3 DUP8 ADD MLOAD SWAP1 POP JUMPDEST PUSH2 0x11C9 DUP6 DUP3 PUSH2 0x114B JUMP JUMPDEST DUP7 SSTORE POP PUSH2 0x1231 JUMP JUMPDEST PUSH1 0x1F NOT DUP5 AND PUSH2 0x11DF DUP7 PUSH2 0xFC5 JUMP JUMPDEST PUSH1 0x0 JUMPDEST DUP3 DUP2 LT ISZERO PUSH2 0x1207 JUMPI DUP5 DUP10 ADD MLOAD DUP3 SSTORE PUSH1 0x1 DUP3 ADD SWAP2 POP PUSH1 0x20 DUP6 ADD SWAP5 POP PUSH1 0x20 DUP2 ADD SWAP1 POP PUSH2 0x11E2 JUMP JUMPDEST DUP7 DUP4 LT ISZERO PUSH2 0x1224 JUMPI DUP5 DUP10 ADD MLOAD PUSH2 0x1220 PUSH1 0x1F DUP10 AND DUP3 PUSH2 0x112D JUMP JUMPDEST DUP4 SSTORE POP JUMPDEST PUSH1 0x1 PUSH1 0x2 DUP9 MUL ADD DUP9 SSTORE POP POP POP JUMPDEST POP POP POP POP POP POP JUMP JUMPDEST PUSH32 0x4E6F7420656E6465640000000000000000000000000000000000000000000000 PUSH1 0x0 DUP3 ADD MSTORE POP JUMP JUMPDEST PUSH1 0x0 PUSH2 0x126F PUSH1 0x9 DUP4 PUSH2 0x90F JUMP JUMPDEST SWAP2 POP PUSH2 0x127A DUP3 PUSH2 0x1239 JUMP JUMPDEST PUSH1 0x20 DUP3 ADD SWAP1 POP SWAP2 SWAP1 POP JUMP JUMPDEST PUSH1 0x0 PUSH1 0x20 DUP3 ADD SWAP1 POP DUP2 DUP2 SUB PUSH1 0x0 DUP4 ADD MSTORE PUSH2 0x129E DUP2 PUSH2 0x1262 JUMP JUMPDEST SWAP1 POP SWAP2 SWAP1 POP JUMP JUMPDEST PUSH32 0x4E487B7100000000000000000000000000000000000000000000000000000000 PUSH1 0x0 MSTORE PUSH1 0x12 PUSH1 0x4 MSTORE PUSH1 0x24 PUSH1 0x0 REVERT JUMPDEST PUSH1 0x0 PUSH2 0x12DF DUP3 PUSH2 0x8A1 JUMP JUMPDEST SWAP2 POP PUSH2 0x12EA DUP4 PUSH2 0x8A1 JUMP JUMPDEST SWAP3 POP DUP3 PUSH2 0x12FA JUMPI PUSH2 0x12F9 PUSH2 0x12A5 JUMP JUMPDEST JUMPDEST DUP3 DUP3 DIV SWAP1 POP SWAP3 SWAP2 POP POP JUMP JUMPDEST PUSH1 0x0 PUSH2 0x1310 DUP3 PUSH2 0x8A1 JUMP JUMPDEST SWAP2 POP PUSH2 0x131B DUP4 PUSH2 0x8A1 JUMP JUMPDEST SWAP3 POP DUP3 DUP3 MUL PUSH2 0x1329 DUP2 PUSH2 0x8A1 JUMP JUMPDEST SWAP2 POP DUP3 DUP3 DIV DUP5 EQ DUP4 ISZERO OR PUSH2 0x1340 JUMPI PUSH2 0x133F PUSH2 0xE3D JUMP JUMPDEST JUMPDEST POP SWAP3 SWAP2 POP POP JUMP JUMPDEST PUSH1 0x0 PUSH1 0x40 DUP3 ADD SWAP1 POP PUSH2 0x135C PUSH1 0x0 DUP4 ADD DUP6 PUSH2 0x994 JUMP JUMPDEST PUSH2 0x1369 PUSH1 0x20 DUP4 ADD DUP5 PUSH2 0x9FB JUMP JUMPDEST SWAP4 SWAP3 POP POP POP JUMP INVALID LOG2 PUSH5 0x6970667358 0x22 SLT KECCAK256 0xC2 0xE5 0xD8 SWAP1 0xBB SELFBALANCE SWAP15 0xD4 CALLDATACOPY LT 0xE0 0xCE 0xC7 RETURNDATASIZE 0xD 0xE8 0xDE 0xDE 0x2D SWAP15 0xE4 PUSH1 0x3E SWAP3 ORIGIN SUB 0x29 STOP 0xEE 0xD PUSH6 0xDF64736F6C63 NUMBER STOP ADDMOD SLT STOP CALLER "
				},
				"gasEstimates": {
					"creation": {
						"codeDepositCost": "1006000",
						"executionCost": "infinite",
						"totalCost": "infinite"
					},
					"external": {
						"castVote(uint256,bool)": "infinite",
						"createProposal(string)": "infinite",
						"finalizeProposal(uint256)": "infinite",
						"proposalCount()": "2495",
						"proposals(uint256)": "infinite",
						"resultProposal(uint256)": "2819",
						"votingToken()": "infinite"
					}
				},
				"methodIdentifiers": {
					"castVote(uint256,bool)": "15373e3d",
					"createProposal(string)": "49c2a1a6",
					"finalizeProposal(uint256)": "5652077c",
					"proposalCount()": "da35c664",
					"proposals(uint256)": "013cf08b",
					"resultProposal(uint256)": "109fd3cb",
					"votingToken()": "b0340123"
				}
			},
			"storageLayout": {
				"storage": [
					{
						"astId": 46,
						"contract": "VotingContract.sol:VotingContract",
						"label": "votingToken",
						"offset": 0,
						"slot": "0",
						"type": "t_contract(IToken)34"
					},
					{
						"astId": 50,
						"contract": "VotingContract.sol:VotingContract",
						"label": "proposals",
						"offset": 0,
						"slot": "1",
						"type": "t_array(t_struct(Proposal)43_storage)dyn_storage"
					},
					{
						"astId": 52,
						"contract": "VotingContract.sol:VotingContract",
						"label": "proposalCount",
						"offset": 0,
						"slot": "2",
						"type": "t_uint256"
					},
					{
						"astId": 58,
						"contract": "VotingContract.sol:VotingContract",
						"label": "hasVoted",
						"offset": 0,
						"slot": "3",
						"type": "t_mapping(t_address,t_mapping(t_uint256,t_bool))"
					},
					{
						"astId": 62,
						"contract": "VotingContract.sol:VotingContract",
						"label": "resultProposal",
						"offset": 0,
						"slot": "4",
						"type": "t_mapping(t_uint256,t_bool)"
					}
				],
				"types": {
					"t_address": {
						"encoding": "inplace",
						"label": "address",
						"numberOfBytes": "20"
					},
					"t_array(t_struct(Proposal)43_storage)dyn_storage": {
						"base": "t_struct(Proposal)43_storage",
						"encoding": "dynamic_array",
						"label": "struct VotingContract.Proposal[]",
						"numberOfBytes": "32"
					},
					"t_bool": {
						"encoding": "inplace",
						"label": "bool",
						"numberOfBytes": "1"
					},
					"t_contract(IToken)34": {
						"encoding": "inplace",
						"label": "contract IToken",
						"numberOfBytes": "20"
					},
					"t_mapping(t_address,t_mapping(t_uint256,t_bool))": {
						"encoding": "mapping",
						"key": "t_address",
						"label": "mapping(address => mapping(uint256 => bool))",
						"numberOfBytes": "32",
						"value": "t_mapping(t_uint256,t_bool)"
					},
					"t_mapping(t_uint256,t_bool)": {
						"encoding": "mapping",
						"key": "t_uint256",
						"label": "mapping(uint256 => bool)",
						"numberOfBytes": "32",
						"value": "t_bool"
					},
					"t_string_storage": {
						"encoding": "bytes",
						"label": "string",
						"numberOfBytes": "32"
					},
					"t_struct(Proposal)43_storage": {
						"encoding": "inplace",
						"label": "struct VotingContract.Proposal",
						"members": [
							{
								"astId": 36,
								"contract": "VotingContract.sol:VotingContract",
								"label": "description",
								"offset": 0,
								"slot": "0",
								"type": "t_string_storage"
							},
							{
								"astId": 38,
								"contract": "VotingContract.sol:VotingContract",
								"label": "yesCount",
								"offset": 0,
								"slot": "1",
								"type": "t_uint256"
							},
							{
								"astId": 40,
								"contract": "VotingContract.sol:VotingContract",
								"label": "noCount",
								"offset": 0,
								"slot": "2",
								"type": "t_uint256"
							},
							{
								"astId": 42,
								"contract": "VotingContract.sol:VotingContract",
								"label": "timestamp",
								"offset": 0,
								"slot": "3",
								"type": "t_uint256"
							}
						],
						"numberOfBytes": "128"
					},
					"t_uint256": {
						"encoding": "inplace",
						"label": "uint256",
						"numberOfBytes": "32"
					}
				}
			},
			"userdoc": {
				"kind": "user",
				"methods": {},
				"version": 1
			}
		}
	}
}